:020000040800F2
:10000000B8080020650100086D0100086F010008B4
:10001000710100087301000875010008000000006C
:100020000000000000000000000000007701000850
:1000300079010008000000007B010008AD430008C2
:100040007F0100087F0100087F0100087F01000890
:100050007F0100087F0100087F0100087F01000880
:100060007F0100087F0100087F010008E109000806
:100070007F0100087F0100087F0100087F01000860
:100080007F0100087F0100087F0100087F01000850
:100090007F0100087F0100087F0100087F01000840
:1000A0007F0100087F0100087F0100087F01000830
:1000B0007F010008AD4400087F0100087F010008AF
:1000C0007F0100087F0100087F0100087F01000810
:1000D0007F010008954B0008A14B0008AD4B0008BC
:1000E0007F0100087F0100087F0100080000000078
:1000F0000000000000000000000000000000000000
:1001000000000000000000007F0100087F010008DF
:10011000B14800087F0100087F0100087F01000846
:100120007F0100087F0100087F0100087F010008AF
:100130007F0100087F0100087F0100087F0100089F
:100140007F0100087F0100087F0100087F0100088F
:10015000DFF80CD000F0AEF800480047D94E000898
:10016000B80800200648804706480047FEE7FEE73B
:10017000FEE7FEE7FEE7FEE7FEE7FEE7FEE7FEE757
:1001800059440008510100082DE9F05F05460020A0
:1001900092469B4688460646814640241BE02846F8
:1001A00041464746224600F020F853465A46C01AB8
:1001B000914110D311461846224600F06CF82D1AD2
:1001C00067EB01084F4622460120002100F063F84A
:1001D00017EB00094E41201EA4F10104DFDC484664
:1001E00031462A464346BDE8F09F202A04DB203AE8
:1001F00021FA02F00021704721FA02F3D040C2F147
:1002000020029140084319467047D2B201E000F83D
:10021000012B491EFBD270470022F6E710B51346AA
:100220000A4604461946FFF7F0FF204610BD421C5F
:1002300010F8011B0029FBD1801A704710B500226D
:1002400000E0521C835C8C5CA34201D1002BF8D1EE
:10025000D8B2E1B2401A10BD034611F8012B00F8E4
:10026000012B002AF9D11846704730B50B460146DC
:1002700000202022012409E021FA02F59D4205D345
:1002800003FA02F5491B04FA02F52844151EA2F1EF
:100290000102F1DC30BD202A04DB203A00FA02F131
:1002A000002070479140C2F1200320FA03F3194364
:1002B00090407047064C074D06E0E06840F00103AF
:1002C00094E8070098471034AC42F6D3FFF744FF98
:1002D000645100088451000870B5044600688168C4
:1002E000C943C9071CD1816821F00101816001F077
:1002F00079FB05460FE000BF01F074FB401B0228AC
:1003000009D9A06A40F01000A062E06A40F0010044
:10031000E062012070BD20688068C043C007EBD058
:10032000002070BD10B50146406A826A12F0500F7D
:1003300005D0006A026BBDE8104008461047816A8C
:1003400041F40071816201688968C1F34241072963
:100350000CD1017B51B9816A21F480718162816A7B
:10036000C90403D4816A41F00101816200F06CFC90
:1003700010BD10B5406A816A41F040018162C16AD6
:1003800041F00401C16200F068FC10BD10B5406A84
:1003900000F062FC10BD0000F8B50026044600968F
:1003A00000688168C943C90728D0816841F001010C
:1003B0008160134813490068B0FBF1F000E0401E73
:1003C00000900028FBD101F00DFB054611E000BFB5
:1003D00001F008FB401B02280BD9A06A40F0100076
:1003E000A062E06A40F00100E06284F8246001202D
:1003F000F8BD20688068C043C007E9D10020F8BD7F
:100400005000002040420F00F0B58DB00746014675
:100410006846FFF721FF00246D46302603E0285D83
:1004200000B92E55641C3846FFF701FFA042F6D1F3
:100430000AA000F0C5FA684600F0C2FA0AA000F06F
:10044000BFFA3846FFF7F3FE82B24FF47A733946AB
:10045000064803F099FB0DB0F0BD00005B4152442B
:100460002054585D3A2000000D0A00005C03002073
:1004700008B503A0006800906846FFF7C5FF08BDF7
:10048000430000007FB510A678CE8DE878008DF887
:1004900004008DF808108DF801008DF805108DF816
:1004A00009208DF806208DF80A008DF802108DF8CD
:1004B00007008DF803208DF80B108DF80C2068468E
:1004C000FFF7A2FF7FBD0000460000000000000013
:1004D00000000000003B00001FB504A30FCB8DE817
:1004E0000F006846FFF790FF1FBD000046010101A5
:1004F000010101FC7503FC75033B000010B5144CB1
:10050000207B012804D0022809D003281DD112E045
:10051000002000F029F8C0B10D48203005E000208F
:1005200000F022F888B10A481430FFF76DFF207BF5
:10053000401C207309E0002000F016F828B10448A0
:100540001A30FFF761FF012010BD002010BD000030
:100550000400002008B503A0006800906846FFF77B
:1005600053FF08BD54000000044910B188730020F7
:100570007047887B00228A737047000004000020C7
:10058000024908B10120C872C87A704704000020EF
:100590002DE9FF5F00210291039100910191D0E9C3
:1005A00000C20D460C46042603270121D0F808801E
:1005B0004FF0050A33464FF00209BCF1EB0F1BD98F
:1005C000BCF1F40F14D9BCF1FE0F0ED9BCF5847F39
:1005D00008D3BCF5897F02D38DF800A00AE08DF81E
:1005E000003007E08DF8007004E08DF8009001E025
:1005F0008DF800108DF808104FF4867C4FF48B7B3B
:10060000EC2A18D9F62A12D9B2F5807F0CD96245A6
:1006100007D35A4502D38DF801A00AE08DF80130C6
:1006200007E08DF8017004E08DF8019001E08DF88D
:1006300001108DF809104FF48F7EB8F5817F18D323
:10064000E04512D3D8450DD3F04508D9B8F5947FCD
:1006500002D98DF802A00AE08DF8023007E08DF88B
:10066000027004E08DF8029001E08DF802108DF820
:100670000A108DF80A108DF802A0D0F80CC052466E
:10068000BCF1FF0F1AD9BCF5857F13D3BCF58A7F67
:100690000DD3F44508D3BCF5947F02D38DF8032025
:1006A0000AE08DF8033007E08DF8037004E08DF860
:1006B000039001E08DF803108DF80B10D0F810C0F6
:1006C000DC451BD3BCF5907F14D9BCF5967F0ED3C7
:1006D000BCF59B7F08D9BCF5A17F02D98DF8042019
:1006E0000AE08DF8043007E08DF8047004E08DF81E
:1006F000049001E08DF804108DF80C10406940F66C
:100700007A0C60451FD940F6D20C604517D940F6E7
:100710002A1C604510D940F6821C604509D940F674
:10072000DA17B84202D98DF805200AE08DF80530B5
:1007300007E08DF8057004E08DF8059001E08DF874
:1007400005108DF80D10002002A90A5C012A01D1C4
:100750006D1CEDB2401C0628F7D1B54224D19DF89E
:1007600005400520C6F106036A46115CA14200D28D
:100770000C46401E8342F8D1062C15D2DFE804F067
:100780001403050E1012012000E0022000F010F802
:10079000B5420BD1204604B0BDE8F09F0420F5E738
:1007A0000820F3E70F20F1E72020EFE70020F2E731
:1007B00070B5204E044600221F21304601F0DCF8BF
:1007C0001D4D00221146284601F0D6F800220121D5
:1007D000284601F0D1F8082C14D006DC012C20D0DA
:1007E000022C19D0042C23D111E0102C05D0202C80
:1007F0001ED101221146304616E001220221304668
:1008000001F0BAF801220421304601F0B5F80122C6
:100810000821304601F0B0F801221021304601F0E5
:10082000ABF8012211462846BDE8704001F0A4B89B
:1008300070BD0000001401400008014070B5891E21
:10084000CDB20178154E164C8EB03B290AD00D2939
:1008500006D0307800EB40022244401C51553070E5
:100860000EB070BD0020694600EB40022244525D8C
:100870000A54401CC0B23228F6D12A46012000F0AA
:1008800011F800213170084600EB40022244401C60
:10089000C0B251553228F7D1E2E700003200002003
:1008A0007600002070B5304C0E4610B301259AB189
:1008B000012A17D0022A14D12C48FFF7CDFCA570CD
:1008C0002BA000BF00F07CF8304600F079F8BDE8BE
:1008D00070402AA000F074B824486438FFF7BCFCCC
:1008E000257070BD21483238FFF7B6FC657024A032
:1008F000E8E720780025A8B11C48257023A16438BA
:10090000FFF79CFC10B923A000F05AF8174823A168
:100910006438FFF793FC28B90420FFF749FF20A0B3
:1009200000F04EF8607800B16570A0780028D8D04B
:10093000A5701EA10D48FFF781FC10B90120FFF73B
:100940001FFE1CA10948FFF779FC10B90120FFF731
:1009500017FE1AA10548FFF771FC0028C1D1BDE8B8
:1009600070400120FFF700BE35000020700100201C
:100970005B4152442052585D3A2000000D0A0000AD
:100980005B4144442052585D3A2000007465737402
:1009900000000000747275650D0A00006C6564004B
:1009A0004C4544207365740D0A0000007374617235
:1009B00074000000706F6E670000000052000000BD
:1009C00010B50446FFF733FC214682B2BDE8104063
:1009D0004FF4FA63014803F0D7B80000DC030020AD
:1009E000014800F0D5BB00007404002030B590F839
:1009F00040500124AC40C56B6C6004686360436880
:100A0000102B036803D099600068C26030BD9A6003
:100A10000068C16030BD000001A0FFF7D1BF000039
:100A20004552524F520000002DE9F843002605467A
:100A300000960068724F0C46B046B84207D0714924
:100A4000884204D040F2CE716FA004F098F920687B
:100A500030B3012824D0022822D0032820D0042833
:100A60001ED005281CD006281AD0072818D0082820
:100A700016D0092814D00A2812D00B2810D00C2820
:100A80000ED00D280CD00E280AD00F2808D0102820
:100A900006D0112804D040F2CF715BA004F06FF9AA
:100AA0006068012822D0022820D003281ED0042804
:100AB0001CD005281AD0062818D0072816D00828D8
:100AC00014D0092812D00A2810D00B280ED00C28D8
:100AD0000CD00D280AD00E2808D00F2806D01028D8
:100AE00004D04FF4FA6148A004F049F9A06890B12D
:100AF000012810D002280ED003280CD004280AD0D8
:100B0000052808D0062806D0072804D040F2D17165
:100B10003DA004F034F995F82400012812D00120FA
:100B200085F8240060681F2107280ED22A68536BBD
:100B3000401E00EB800081408B43216881400B43C5
:100B400053631AE00220BDE8F8832A680D280AD210
:100B5000136BC01F00EB800081408B4321688140F4
:100B60000B43136309E0D36A0D3800EB800081402A
:100B70008B43216881400B43D362206807210A28F8
:100B80000BD32A68D3680A3800EB400081408B43BE
:100B9000A16881400B43D36009E02B681A6900EB20
:100BA000400081408A43A16881400A431A6120685D
:100BB000102801D011281FD12868B84217D18168A8
:100BC000090219D4816841F400018160206810286D
:100BD00012D11B481B490068B0FBF1F000EB80000C
:100BE000400000E0401E00900028FBD104E0A86A0D
:100BF00040F02000A862012685F824803046A2E754
:100C000000240140002801402E2E2F447269766591
:100C100072732F53544D3332463178785F48414CCC
:100C20005F4472697665722F5372632F73746D33EC
:100C300032663178785F68616C5F6164632E63004F
:100C40005000002040420F0002490622A1F5F87032
:100C500000F05CB95C040020704770472DE9F0415A
:100C60004FF000060400354676D07149206888426E
:100C700007D07049884204D040F2B3116EA004F04E
:100C80007EF8606838B1B0F5006F04D04FF4DA71C7
:100C900069A004F074F8A0684FF4807830B1404542
:100CA00004D040F2B51164A004F069F8207B30B1A3
:100CB000012804D04FF4DB715FA004F060F8E06914
:100CC000B0B1B0F5003F13D0B0F5C02F10D0B0F5E3
:100CD000002F0DD0B0F5202F0AD0B0F5402F07D04F
:100CE000B0F5602F04D040F2B71153A004F047F8DC
:100CF000A06800281CD02069401E0F2804D940F2AB
:100D0000BB114DA004F03BF8207D88B1012806D02E
:100D10004FF4DE7148A004F032F8207D40B1A069A4
:100D2000401E072804D940F2BF1143A004F027F861
:100D3000A06A002728B9E76284F82470204600F0F2
:100D40009DF82046FFF7C8FAA16AC90600D420B171
:100D5000A06A40F01000A06268E0A16A21F4885106
:100D600041F00201A1626268E169237B0A4346EA1D
:100D700043010A43A1684646B14209D0012907D080
:100D80005FF0000194F814C0BCF1010F02D00AE03A
:100D90004146F7E7F3B1A36A43F02003A362E36A95
:100DA00043F00103E3622368D3F804C02CF4694CD8
:100DB0004CEA010CC3F804C021688B68DFF8B0C0AE
:100DC00003EA0C0313438B60A168B1420BD00129E5
:100DD00009D00CE0DFF89CC0A3690CEB43330B4354
:100DE00043F40061DFE7218A0D05A5F58015216830
:100DF000CB6A23F470032B43CB62216889681E4BB6
:100E00001940914208D1E762A16A21F0020141F044
:100E10000101A162BDE8F081A06A20F0020040F06B
:100E20001000A062E06A40F00100E0620120F1E7FA
:100E300000240140002801402E2E2F44726976655F
:100E400072732F53544D3332463178785F48414C9A
:100E50005F4472697665722F5372632F73746D33BA
:100E600032663178785F68616C5F6164632E63001D
:100E7000FDF7E1FF00E0FFFFFE0E1FFF70B586B03B
:100E800000250646009501950295039500681A49CC
:100E900088422ED11949886940F4007088618869B8
:100EA00000F400700490886940F00400886188694B
:100EB000694600F004000490FC200090032001909B
:100EC0000F4800F0C7FB104C0E48C4E90005802015
:100ED000C4E9025080002061800060612020C4E9E4
:100EE0000605204600F078FA08B1FFF795FD346258
:100EF000666206B070BD0000002401400010024090
:100F00000008014008000240740400202DE9F04769
:100F1000044600683F4D90468946A84204D040F2FE
:100F200014613DA003F02BFF3A4E2068484F361D58
:100F3000A84201D0B84207D1306810F4702F03D016
:100F400001252846BDE8F08794F8240001280CD03C
:100F5000012084F824002046FFF71EFA05004FF018
:100F6000000004D084F82400EBE70220EAE7A16A3D
:100F700040F60162914341F48071A1622168B94257
:100F800018D1326812F4702F14D0A16A41F4801184
:100F9000A1623168490505D5A16A21F4005141F4E7
:100FA0008051A162A16AC9040AD5E16A21F0060153
:100FB000E16206E0A26A22F48012A2624968E9E7CF
:100FC000E06284F82400216A22488862216A22486B
:100FD000C862216A2148086321686FF00200086036
:100FE0002068816841F480718160216843464A46E7
:100FF0004C31206A00F0C8FA20688168C1F3424190
:101000000729816803D041F48011816099E741F498
:10101000A001FAE7002401402E2E2F447269766564
:1010200072732F53544D3332463178785F48414CB8
:101030005F4472697665722F5372632F73746D33D8
:1010400032663178785F68616C5F6164632E63003B
:1010500000280140250300088D03000873030008E1
:101060002DE9F05F90F821100024022903D004211B
:101070008163012485E001680A6822F00E020A609B
:1010800001680A6822F001020A603F4E3E4FB21525
:10109000DFF8F4C0DFF8F090DFF8ECA0DFF8E8B09C
:1010A000DFF8E4E00168783F13011502ACF1640C4D
:1010B000A9F15009AAF13C0AABF1280BAEF1140ECC
:1010C0004FF48018B14227D9B9420ED0614512D0F1
:1010D00049451DD0514518D0594518D0714501D109
:1010E000424615E0294EB14201D1012210E0274EBF
:1010F0001436B14201D110220AE0244E2836B14202
:1011000006D0224A3C32914201D11A4600E02A46DA
:101110001E49091F0A602BE0B94213D0614517D060
:10112000494522D051451DD059451DD0714501D1A9
:1011300042461AE0B14202D14FF0807215E0134EE0
:10114000B14201D1012210E0104E1436B14201D15A
:1011500010220AE00D4E2836B14206D00B4A3C322E
:10116000914201D11A4600E02A46074980394A6077
:10117000012180F82110002180F82010416B01B17D
:1011800088472046BDE8F09F8000024008040240E6
:101190002DE9F05FC16B0A6801680B68046C4FF0C1
:1011A000040808FA04F8844D844E854FDFF814C211
:1011B000DFF81492DFF814A2DFF814B2DFF814E2BB
:1011C00018EA020F65D05FEA437862D50A68920692
:1011D00003D40A6822F004020A60DFF8F0814FF4B9
:1011E0008062016808F1140813011402414524D9F2
:1011F000A9420DD0B1420FD0B9421AD0614515D0E5
:10120000494515D0514501D1120312E0594501D18C
:1012100004220EE0714501D140220AE06D4D1435E3
:10122000A94206D06B4A2832914201D11A4600E009
:1012300022466749091F0A6029E0A94213D0B1423A
:1012400015D0B94220D061451BD049451BD051452E
:1012500002D14FF4800217E0414502D14FF0806285
:1012600012E0594501D104220EE0714501D140221E
:101270000AE0584D1435A94206D0564A2832914208
:1012800001D11A4600E022464B4908394A60C16A3A
:1012900071E04FF0020808FA04F818EA020F70D063
:1012A0005FEA83786DD50A68920606D40A6822F050
:1012B0000A020A60012180F82110DFF810814FF442
:1012C0000072016808F1140813011402414524D981
:1012D000A9420DD0B1420FD0B9421AD0614515D004
:1012E000494515D0514501D1120312E0594501D1AC
:1012F00002220EE0714501D120220AE0354D14355D
:10130000A94206D0334A2832914201D11A4600E060
:1013100022462F49091F0A6029E0A94213D0B14291
:1013200015D0B94220D061451BD049451BD051454D
:1013300002D14FF4001217E0414502D14FF0007284
:1013400012E0594501D102220EE0714501D120225F
:101350000AE0204D1435A94206D01E4A2832914297
:1013600001D11A4600E02246134908394A6000219B
:1013700080F82010816A00291CD0BDE8F05F084782
:10138000FFE70825A540154214D01A0712D50A68B0
:1013900022F00E020A6090F84020C36B012101FA8E
:1013A00002F25A60816380F82110002180F8201039
:1013B000016BE0E7BDE8F09F080002401C0002401E
:1013C0003000024044000240580002406C000240DD
:1013D000080402401C04024070B504007ED05A4943
:1013E00020685A4D88422DD057491431884229D05F
:1013F00055492831884225D053493C31884221D073
:101400005149503188421DD04F496431884219D02A
:101410004D497831884215D0A84213D04B49143138
:1014200088420FD04949283188420BD047493C3186
:10143000884207D045495031884203D09A2144A0C0
:1014400003F09DFC606840B1102806D0B0F5804FD5
:1014500003D09B213EA003F092FCA068402804D05A
:1014600018B19C213AA003F08AFCE068802804D0DF
:1014700018B19D2136A003F082FC206948B1B0F577
:10148000807F06D0B0F5007F03D09E2130A003F00E
:1014900076FC606948B1B0F5806F06D0B0F5006F9A
:1014A00003D09F212AA003F06AFCA06928B120285C
:1014B00003D0A02126A003F062FCE06960B1B0F582
:1014C000805F09D0B0F5005F06D0B0F5405F03D073
:1014D000A1211FA003F053FC142000E00CE02168C0
:1014E000A9420BD2184A52420A44B2FBF0F08000E3
:1014F0002064154808380AE0012070BD134A5242A2
:101500000A44B2FBF0F08000206410480838E06321
:10151000022084F821000A6843F6F0708243F4E95F
:1015200001031843D4E902352B43184323691843B8
:1015300063691843A369184310430860002060637F
:1015400001216177207770BD080002400804024045
:101550002E2E2F447269766572732F53544D333299
:10156000463178785F48414C5F4472697665722FE6
:101570005372632F73746D3332663178785F6861AC
:101580006C5F646D612E63002DE9F041884604466E
:101590000025581E4FF6FF711E461746884204D399
:1015A00040F26F111DA003F0EAFB94F8200001281F
:1015B0000DD0012084F8200094F82110002001298A
:1015C00007D084F8200002252846BDE8F0810220DB
:1015D000FBE7022184F82110A0632068016821F054
:1015E0000101016033463A4641462046FFF7FEF9C5
:1015F000E06A00282068016802D041F00E0106E090
:1016000021F0040101602068016841F00A010160D5
:101610002068016841F001010160D5E72E2E2F44BA
:101620007269766572732F53544D33324631787830
:101630005F48414C5F4472697665722F5372632F25
:1016400073746D3332663178785F68616C5F646D96
:10165000612E63002DE9F84F0026DFF89CB20D469D
:101660000446B14658450FD0A44884420CD0A44843
:10167000844209D0A348844206D0A348844203D0C0
:10168000BD21A2A003F07BFB28680104090C01D056
:10169000000C03D0BE219DA003F071FB6868DFF849
:1016A000A8A200281ED00128FCD01128FAD00228B8
:1016B000F8D01228F6D05045F4D0A4498842F1D091
:1016C000A3498842EED0A3498842EBD0A249884280
:1016D000E8D0A2498842E5D00328E3D0BF218BA0FF
:1016E00003F04DFB00E1012000FA06F807EA0807C5
:1016F00047456FD15C450FD0804884420CD080486C
:10170000844209D07F48844206D07F48844203D077
:10171000CD217EA003F033FB6868A0EB0A025045A0
:1017200059D00EDC032875D006DC002853D00128E0
:1017300019D0022869D131E0112821D0122864D1B2
:101740003AE0B2F5881F46D006DCB2F5803F42D0C1
:10175000B2F5801F59D13EE0B2F5001F3BD0B2F583
:10176000041F52D137E0E868022807D0012805D0CD
:10177000032803D0D52165A003F001FBE8683EE013
:10178000E868022807D0012805D0032803D0DC210F
:101790005EA003F0F4FAE868001D30E0E868022873
:1017A00007D0012805D0032803D0E32157A003F078
:1017B000E6FAE868083022E0E868022807D0012845
:1017C00005D0032803D0EA2150A003F0D8FAE86836
:1017D0000C3014E087E0A86880B1012811D00228FD
:1017E00007D0F72149A003F0CAFAA86830B1012850
:1017F00007D04FF00809C4F8148006E004208146A1
:1018000003E04FF00809C4F81080FF2F05D82146E7
:1018100005E0FFE74FF00000F1E704F104014FEAB3
:10182000860001D9A0F120000B684FF00F0202FAE8
:1018300000FC23EA0C0309FA00FC43EA0C030B60EA
:101840006868C0004FD54648816941F00101816157
:10185000806926F0030100F00100009041480B1858
:101860009868B1074FEA117C02FA0CF290435C458C
:1018700001D100210FE021498C4201D101210AE070
:101880001F498C4201D1022105E01E498C4201D141
:10189000032100E0042101FA0CF10143996068681A
:1018A000C0033148016801D5394300E0B943016004
:1018B000686880032D48016801D5394300E0B943C9
:1018C00001606868C0022A48016801D5394300E018
:1018D000B9430160686880022648016801D5394330
:1018E00000E0B9430160761C2F6837FA06F07FF4F8
:1018F000FAAEBDE8F88F000000080140000C01407E
:101900000010014000140140001801402E2E2F4409
:101910007269766572732F53544D3332463178783D
:101920005F48414C5F4472697665722F5372632F32
:1019300073746D3332663178785F68616C5F67709D
:10194000696F2E63000000000000111000002110DC
:1019500000003110000012100000221000003210B0
:101960000010024000000140000401400404014056
:10197000080401400C04014070B515460C000646F1
:1019800004D14FF4EA7108A003F0F9F945B1012D33
:1019900004D040F2D51104A003F0F1F9346170BD18
:1019A0002004306170BD00002E2E2F4472697665D0
:1019B00072732F53544D3332463178785F48414C1F
:1019C0005F4472697665722F5372632F73746D333F
:1019D00032663178785F68616C5F6770696F2E631B
:1019E00000000000014880687047000044000020AB
:1019F000074810B5016841F010010160032000F0B4
:101A0000C9F8002000F006F800F024F8002010BD0E
:101A10000020024070B50D4D04464FF47A712878CD
:101A2000B1FBF0F00A490968B1FBF0F000F07DFF6E
:101A300048B9102C07D200222146501E00F05AF857
:101A400000206C6070BD012070BD000044000020CB
:101A5000500000200C4808B5816941F00101816106
:101A6000816901F001010091C16941F08051C161BA
:101A7000C06900F0805000900448416821F0E061A6
:101A800041F00071416008BD0010024000000140BB
:101A900010B5040003D5BE2107A003F070F9002C97
:101AA00009DB04F01F01012088406109890001F170
:101AB000E021C1F8000110BD2E2E2F447269766519
:101AC00072732F53544D3332463178785F48414C0E
:101AD0005F4472697665722F5372632F73746D332E
:101AE00032663178785F68616C5F636F72746578B5
:101AF0002E63000070B515460C460646102A03D327
:101B0000AA2114A003F03BF9102C03D3AB2111A0A0
:101B100003F035F91E480068C0F30223C3F1070241
:101B20002046042A00D90422191D072901D20023C6
:101B300000E0DB1E012404FA02F1491E0140994035
:101B40009C40641E2C4021433046BDE8704003F0A9
:101B500047B800002E2E2F447269766572732F539A
:101B6000544D3332463178785F48414C5F44726956
:101B70007665722F5372632F73746D3332663178CA
:101B8000785F68616C5F636F727465782E630000C4
:101B90000CED00E010B5044607280BD0062C09D048
:101BA000052C07D0042C05D0032C03D0922108A0CB
:101BB00003F0E5F8154904F0070208684FF6FF0343
:101BC000184040EA0220124A1043086010BD00008D
:101BD0002E2E2F447269766572732F53544D333213
:101BE000463178785F48414C5F4472697665722F60
:101BF0005372632F73746D3332663178785F686126
:101C00006C5F636F727465782E6300000CED00E00A
:101C10000000FA052DE9F84F04460068A44DC107FD
:101C20004FF001094FF4004A4FF4404B0ED18107A9
:101C300070D441077DD401077CD4C0067BD46C21CD
:101C40009CA003F09CF82078C00760D0606860B169
:101C5000B0F5807F09D0B0F5007F06D0B0F5407FA9
:101C600003D0722193A003F08AF8E8690026C0002F
:101C700008D4E86940F08050E861E869012600F086
:101C8000805000909A480168C90512D401688046C6
:101C900041F480710160FFF7A5FE074605E000BF33
:101CA000FFF7A0FEC01B64287DD8D8F80000C0054F
:101CB000F6D5286A10F440701ED0A18801F4407156
:101CC000814219D0286A8B4920F44070C1F80090F5
:101CD00000220A602862C0070ED0FFF783FE074685
:101CE00041F2883805E000BFFFF77CFEC11B41458B
:101CF000DAD8286A8007F7D5286A616820F440702E
:101D0000084328621EB1E86920F08050E86120781D
:101D1000800716D5A06850B1B0F5804F07D0504568
:101D200005D0584503D0B92162A003F028F86868AF
:101D300002E009E01AE028E0A16820F440400843EE
:101D40006860207840070ED5E06830B1B0F5003FFC
:101D500003D0C42157A003F012F8E86AE16820F428
:101D600000300843E862207800070ED5206930B1C2
:101D7000B0F5802F03D0CE214EA003F000F8E86A22
:101D8000216920F480200843E862E86A800302D4D5
:101D9000E86A400376D52868C0006BD46069B0F566
:101DA000C04F1BD000E05EE0B0F5E04F16D05045CC
:101DB00014D0B0F5104F11D0B0F5204F0ED0B0F5C3
:101DC000304F0BD0584509D0B0F5604F06D0B0F574
:101DD000704F03D0E32137A002F0D1FFA06908B310
:101DE00010281FD020281DD030281BD0402819D003
:101DF000502817D0602815D0702813D0802811D013
:101E000090280FD0A0280DD0B0280BD0C02809D022
:101E1000D02807D0E02805D0F02803D0E42125A061
:101E200002F0ADFF2868400105D5E86AA16900F01D
:101E3000F000884224D1E86AA16920F0F00008434C
:101E4000E862E86A616920F470400843E8622A4960
:101E5000C1F87090FFF7C6FD064607E0FFF7C2FD28
:101E6000801B642802D90320BDE8F88F2868800011
:101E7000F4D507E0E86A616900F47040884201D057
:101E80000120F1E72078C0060FD5E069B0F5800F9A
:101E900005D020B140F2151106A002F070FF68686D
:101EA000E16920F48000084368600020DCE700005E
:101EB000001002402E2E2F447269766572732F53E4
:101EC000544D3332463178785F48414C5F447269F3
:101ED0007665722F5372632F73746D333266317867
:101EE000785F68616C5F7263635F65782E63000082
:101EF0000070004040044242000042422DE9F04799
:101F00000F46050078D02868C1070AD1810708D498
:101F1000410706D4000704D44FF44E716FA002F0BD
:101F20002EFF47B1012F06D0022F04D040F23931E5
:101F30006AA002F024FF774E306800F00700B84234
:101F400009D2306820F0070038433060306800F074
:101F50000700B84277D128686F4C810729D5400720
:101F600003D5606840F4E06060602878000703D51E
:101F7000606840F460506060A868A0B1802812D00A
:101F8000902810D0A0280ED0B0280CD0C0280AD09D
:101F9000D02808D0E02806D0F02804D040F25F31E5
:101FA0004EA002F0ECFE6068A96820F0F000084343
:101FB00060602878C00737D0686868B101281CD0F5
:101FC00002281DD040F2663144A002F0D8FE6868B5
:101FD000012812D0022813D020688007002832DAA6
:101FE0006068696820F0030008436060FFF7FAFC4E
:101FF000804641F2883910E025E020688003EDE753
:1020000020688001EAE700BFFFF7ECFCA0EB0801C5
:10201000494502D90320BDE8F0876068696800F08F
:102020000C00B0EB810FEFD1306800F00700B84230
:102030000BD9306820F0070038433060306800F07A
:102040000700B84201D00120E5E728784FF4806608
:1020500040074FF4A0674FF4C0684FF4E06914D50F
:10206000E86860B1B0420AD0B84208D0404506D016
:10207000484504D04FF4697118A002F080FE6068F2
:10208000E96820F4E060084360602878000715D50F
:10209000286960B1B0420AD0B84208D0404506D0A5
:1020A000484504D040F2AB310CA002F068FE6068F5
:1020B000296920F4605040EAC100606000F054F8E3
:1020C0006168164AC1F30311515CC84014490860A5
:1020D00014480068FFF79EFC00209CE72E2E2F443A
:1020E0007269766572732F53544D33324631787866
:1020F0005F48414C5F4472697665722F5372632F5B
:1021000073746D3332663178785F68616C5F7263C7
:10211000632E630000200240001002404C51000872
:102120005000002048000020044805490068496824
:10213000044AC1F30221515CC8407047500000209E
:10214000001002405C5100080448054900684968D5
:10215000044AC1F3C221515CC840704750000020BE
:10216000001002405C510008F0B524A289B00FCAEB
:1021700004AC84E80F0025A10FC98DE80F002748A3
:10218000416801F00C02042A04D0082A04D0244833
:1021900009B0F0BD2348FBE704AAC1F38343C90398
:1021A000D45C28D5C16AC26A01F00F011DF8011084
:1021B000D20316D5C26AC06AC2F30312521CA2FB34
:1021C0000123C0F30320801CA0FB0415154F00263B
:1021D000A1FB070C05FB07C501FB0651FDF7D4FF6A
:1021E00003E010486043B0FBF1F09DF81D10A142E0
:1021F000CED14008CCE70C486043C9E70000040595
:102200000607080900000000000D00000102030499
:1022100005060708090A0B0C0D0E0F1000100240EE
:1022200000127A0040787D0100093D0070B586B04B
:10223000002615460C46009601960296039620B19C
:1022400040F2EF3121A002F09AFD25B14FF47C71EC
:102250001EA002F094FDB4F1806F1AD0B4F1A06F0B
:1022600017D0B4F1C06F14D0B4F1E06F11D0B4F155
:10227000006F0ED0B4F1306F0BD0B4F1106F08D0F6
:10228000B4F1206F05D024B140F2F1310FA002F07B
:1022900076FD022001900320CDE90260194D4FF434
:1022A00080700090A86940F00400A861A8696946A0
:1022B00000F0040004901448FFF7CCF9686820F09F
:1022C00070602043686006B070BD00002E2E2F4461
:1022D0007269766572732F53544D33324631787874
:1022E0005F48414C5F4472697665722F5372632F69
:1022F00073746D3332663178785F68616C5F7263D6
:10230000632E630000100240000801402DE9F84FE1
:1023100004007DD0F64EF74D20684FF001090027EC
:102320004FF4803A60B1C1070DD1810764D4010731
:102330006FD440076ED440F26711EFA002F01FFD8A
:102340002078C00755D0A0684FF4A02840B1504570
:1023500006D0404504D040F26D11E7A002F00FFD19
:102360006868C0F38100012807D06868C0F3810065
:10237000022809D16868C00306D52868800338D5CB
:10238000A0680028C5D034E0A068504503D1286873
:1023900040F4803009E008B140450DD0286820F4B1
:1023A00080302860286820F480202860A06898B1D8
:1023B000FFF718FB80460BE0286840F48020286077
:1023C000E5E700BFFFF70EFBA0EB0800642878D814
:1023D00028688003F6D50CE0FFF704FB804605E093
:1023E000FFF700FBA0EB08006428F0D82868800302
:1023F000F6D4207880074ED5606930B1012804D02A
:1024000040F2A111BCA002F0BAFCA0691F2802E0B2
:1024100098E043E07EE004D94FF4D171B6A002F019
:10242000AEFC686810F00C0F07D06868C0F381003C
:10243000022809D16868C00306D42868800714D52B
:10244000606901287ED110E06069B0B1C6F80090E3
:10245000FFF7C8FA804605E0FFF7C4FAA0EB0800D2
:102460000228B4D828688007F6D52868A16920F02A
:10247000F80040EAC10028600DE03760FFF7B2FACB
:10248000804605E0FFF7AEFAA0EB080002289ED8D0
:1024900028688007F6D42078000738D5DFF89082C6
:1024A000E06928B3012806D04FF4F17192A002F040
:1024B00066FCE069E0B1C8F80090FFF793FA804647
:1024C00006E0B2E1FFF78EFAA0EB080002288CD8F4
:1024D000686A8007F6D597484FF4FA510068B0FB58
:1024E000F1F0009000BF0098411E0091FAD20EE07A
:1024F000C8F80070FFF776FA804605E0FFF772FA39
:10250000A0EB08000228ACD8686A8007F6D42078CF
:10251000400771D520694FF0000840B1012806D06E
:10252000052804D040F2112173A002F028FCE869CC
:10253000C0000BD4E86940F08050E861E86900F021
:10254000805000E0D3E04FF0010800907A48016825
:10255000C90511D4016841F480710160FFF742FAA6
:10256000834605E0FFF73EFAA0EB0B0064288ED807
:1025700071480068C005F5D5206901280AD008B166
:10258000052811D0286A20F001002862286A20F06E
:10259000040002E0286A40F0010028622069A8B126
:1025A000FFF720FA83460DE0286A40F00400286215
:1025B000F0E700BFFFF716FAA0EB0B0141F28830FD
:1025C000814284D8286A8007F4D50EE0FFF70AFA22
:1025D000834607E0FFF706FAA0EB0B0141F28830D3
:1025E000814290D8286A8007F4D4B8F1000F03D054
:1025F000E86920F08050E861E06A002876D0012880
:1026000009D0022807D040F256213BA002F0B7FBC8
:10261000E06A00286AD06868C00307D56868C0F31C
:102620008100022802D1E86AC00360D4E06A02286F
:1026300008D0E86A20F48030E862B766FFF7D2F984
:102640008046A7E0206BB0F5C06F1CD0B0F5E06FFE
:1026500019D0B0F5006F16D0B0F5106F13D0B0F5EB
:10266000206F10D0B0F5306F0DD0B0F5406F0AD0AC
:10267000B0F5606F07D0B0F5706F04D040F26621FE
:102680001DA002F07CFB606B10B3102820D0202826
:102690001ED030281CD040281AD0502818D06028CE
:1026A00016D0702814D0802812D0902810D0A028DE
:1026B0000ED0B0280CD0C0280AD0D02808D0E028EE
:1026C00006D0F02804D040F267210BA002F057FB9F
:1026D0002868C00005D5E86A616B00F0F000884208
:1026E00005D1B766FFF77EF980462DE055E018E189
:1026F00000004242001002402E2E2F44726976657F
:1027000072732F53544D3332463178785F48414CC1
:102710005F4472697665722F5372632F73746D33E1
:1027200032663178785F68616C5F7263632E630034
:10273000800442425000002000700040FFF752F930
:10274000A0EB0800642870D828680001F6D4E86A75
:10275000616B20F0F0000843E862E86A216B20F426
:1027600070600843E862C6F86890FFF73BF980465E
:1027700006E000BFFFF736F9A0EB08006428E2D8B6
:1027800028680001F6D508E0FFF72CF9A0EB080057
:102790006428D8D828680001F6D4206A00287CD0A4
:1027A00001280AD0022808D040F2AF21AFF2B800C9
:1027B00002F0E5FA206A00286FD06868C0F3810053
:1027C0000228206A6AD0022804D03766FFF70AF987
:1027D000044695E0606A38B1504505D04FF42E713B
:1027E000AFF2EC0002F0CBFAA06AB0F5002F17D0E0
:1027F000B0F5402F14D0B0F5801F11D0B0F5A01F58
:102800000ED0B0F5C01F0BD0B0F5E01F08D0B0F56A
:10281000501F05D040F2B921AFF2241002F0AFFAF8
:102820003766FFF7DFF8074605E066E0FFF7DAF8FE
:10283000C01B022861D828688001F7D4606A574617
:10284000B8423CD1E06818B3012821D002281FD03B
:1028500003281DD004281BD0052819D0062817D01E
:10286000072815D0082813D0092811D00A280FD01E
:102870000B280DD00C280BD00D2809D00E2807D01E
:102880000F2805D040F2CF21AFF2941002F077FA72
:10289000606850B1B84208D001E044E034E040F252
:1028A000D121AFF2AC1002F06AFAE86A616808431D
:1028B000E862E86AE16820F00F000843E862D4E9C2
:1028C00009010843696821F4741108436860C6F877
:1028D0006090FFF787F8044605E000BFFFF782F835
:1028E000001B022809D828688001F7D51BE000BF2B
:1028F000FFF778F8001B022802D90320BDE8F88F03
:1029000028688001F4D40EE00128F7D06868626A74
:1029100000F48031914204D1A16A00F47010884221
:1029200001D00120EAE70020E8E710B5401EB0F131
:10293000807F01D3012010BD4FF0E02460610F21A2
:10294000601702F04DF90020A061072020610020EF
:1029500010BD70477047000070B50C460546006812
:102960003D49884204D040F29E613CA002F007FA43
:102970002068B0F5006F05D020B140F29F6137A00C
:1029800002F0FDF96068B0F5806F05D020B14FF41A
:10299000D46132A002F0F3F9A06868B1B0F5807F8D
:1029A0000AD0B0F5007F07D0B0F5407F04D040F2E8
:1029B000A1612AA002F0E3F9E068FF2804D940F2FF
:1029C000A26126A002F0DBF92069B0F5805F05D096
:1029D00020B140F2A36121A002F0D1F9606938B1C1
:1029E000B0F5005F04D040F2A4611CA002F0C7F96A
:1029F000E069B0F5804F05D020B140F2A56117A085
:102A000002F0BDF995F83C00012822D0012085F89C
:102A10003C00E068A26820F440701043626820F433
:102A200080601043226820F400601043226920F483
:102A300080501043626920F400501043E269002185
:102A400020F4804010432A68506485F83C10002030
:102A500070BD022070BD0000002C01402E2E2F44BE
:102A60007269766572732F53544D333246317878DC
:102A70005F48414C5F4472697665722F5372632FD1
:102A800073746D3332663178785F68616C5F746936
:102A90006D5F65782E63000070B50D4604460068D2
:102AA0002B49884216D0B0F1804F13D02949884273
:102AB00010D0294988420DD0284988420AD0284997
:102AC000884207D02749884204D040F2646126A09A
:102AD00002F055F9286890B1102810D020280ED0A7
:102AE00030280CD040280AD0502808D0602806D0C2
:102AF000702804D040F265611BA002F040F96868BC
:102B0000802805D020B140F2666117A002F037F9A5
:102B100094F83C00012818D0012304F83C3F02201F
:102B2000607054F83C1C48688A6820F07006286879
:102B3000304322F080066A684860324354F83C0C07
:102B4000826063700020207070BD022070BD0000A4
:102B5000002C01400004004000080040000C004030
:102B600000100040001400402E2E2F44726976653C
:102B700072732F53544D3332463178785F48414C4D
:102B80005F4472697665722F5372632F73746D336D
:102B900032663178785F68616C5F74696D5F657803
:102BA0002E63000010B5040043D02C4920688842F1
:102BB00016D0B0F1804F13D02949884210D029494E
:102BC00088420DD0284988420AD02849884207D037
:102BD0002749884204D04FF4897126A002F0CFF82B
:102BE000A06860B110280AD0202808D0402806D05C
:102BF000602804D040F213111EA002F0C0F8206932
:102C000050B1B0F5807F07D0B0F5007F04D04FF40D
:102C10008A7118A002F0B3F8A06930B1802804D0FE
:102C200040F2151113A002F0AAF894F83D0010B17B
:102C300007E0012010BD002084F83C00204600F091
:102C400035F8022084F83D00211D206801F034FC95
:102C5000012084F83D00002010BD0000002C014040
:102C60000004004000080040000C0040001000403C
:102C7000001400402E2E2F447269766572732F5314
:102C8000544D3332463178785F48414C5F44726925
:102C90007665722F5372632F73746D333266317899
:102CA000785F68616C5F74696D2E630008B5174AC0
:102CB00001681748914207D1816941F4006181613F
:102CC000806900F400601EE0B1F1804F14D0114A19
:102CD000914219D1C16941F00201C161C06900226C
:102CE00000F00200009011461D20FEF703FFBDE832
:102CF00008401D20FEF7CCBEC16941F00101C16151
:102D0000C06900F00100009008BD0000002C0140E7
:102D1000001002400004004010B504460168154848
:102D2000814216D0B1F1804F13D01348814210D0A8
:102D3000124881420DD0124881420AD01148814286
:102D400007D01148814204D040F2B9110FA002F01F
:102D500016F82068C16841F00101C16020688168EF
:102D600001F00701062903D0016841F0010101606B
:102D7000002010BD002C014000040040000800406D
:102D8000000C004000100040001400402E2E2F4484
:102D90007269766572732F53544D333246317878A9
:102DA0005F48414C5F4472697665722F5372632F9E
:102DB00073746D3332663178785F68616C5F746903
:102DC0006D2E630010B5044601681748814216D085
:102DD000B1F1804F13D01548814210D01448814280
:102DE0000DD0144881420AD01348814207D01348BD
:102DF000814204D040F2D11111A001F0C0FF20683F
:102E0000C16821F00101C1602068016A41F211121C
:102E1000114207D1016A9210114203D1016821F0D9
:102E200001010160002010BD002C014000040040A1
:102E300000080040000C004000100040001400405A
:102E40002E2E2F447269766572732F53544D333290
:102E5000463178785F48414C5F4472697665722FDD
:102E60005372632F73746D3332663178785F6861A3
:102E70006C5F74696D2E63002DE9F05F054690F874
:102E80003C000C4601283DD04FF0010A85F83CA0DB
:102E9000022085F83D0020684FF480584FF4005917
:102EA000404515D0484513D090B1102810D02028A7
:102EB0000ED030280CD040280AD0502808D06028E6
:102EC00006D0702804D041F28A11B2A001F057FF59
:102ED0002868816821F0770121F47F418160BC4935
:102EE0002768BA48BB4ABC4BCE134FF0804C502FDA
:102EF0006FD00FDC202F04D007DC002FFBD0102F69
:102F00004FD134E10220BDE8F09F302FF9D0402F9F
:102F1000F6D1FFE0602F7DD04FF4405B702F59D089
:102F200047453FD04F45EBD12F6887420CD06745CE
:102F30000AD08F4208D0974206D09F4204D041F277
:102F4000B51194A001F01BFFA06850B1404508D016
:102F5000484506D0584504D041F2B8118DA001F083
:102F60000EFF6068B04209D040B1022806D00A289E
:102F700004D041F2B91187A001F001FFE0680F28E9
:102F800004D941F2BA1183A001F0F9FED4E901217C
:102F9000E368286801F0CEFA2868816841F480412E
:102FA0008160B1E02C688442FBD06445F9D08C424A
:102FB000F7D09442F5D09C42F3D088488442F0D0B8
:102FC00087488442EDD041F2961172A001F0D7FEFD
:102FD0009AE03EE02F6887420CD067450AD08F42C6
:102FE00008D0974206D09F4204D041F29D1169A0BB
:102FF00001F0C5FEA06850B1404508D0484506D054
:10300000584504D04FF48D5162A001F0B8FE6068BD
:10301000B04200E04AE009D040B1022806D00A28B8
:1030200004D041F2A1115BA001F0A9FEE0680F28D5
:1030300004D941F2A21157A001F0A1FED4E9012167
:10304000E368286801F076FA2868816841F0770122
:10305000A6E72F6887420CD067450AD08F4208D078
:10306000974206D09F4204D041F2C91149A001F015
:1030700086FE6068B04209D040B1022806D00A2816
:1030800004D041F2CC1143A001F079FEE0680F2892
:1030900004D941F2CD113FA001F071FEE2686168F0
:1030A000286801F0E1FB502128682BE02F68874257
:1030B0000CD067450AD08F4208D0974206D09F4275
:1030C00004D041F2D91133A001F059FE6068B0423A
:1030D00009D040B1022806D00A2804D041F2DC1100
:1030E0002CA001F04CFEE0680F2804D941F2DD115C
:1030F00028A001F044FEE2686168286801F0C5FB81
:103100006021286801F020FA85F83DA0002085F8AC
:103110003C00F8E62F6887420CD067450AD08F4202
:1031200008D0974206D09F4204D041F2E91119A07D
:1031300001F025FE6068B04209D040B1022806D0F7
:103140000A2804D041F2EC1112A001F018FEE06848
:103150000F2804D941F2ED110EA001F010FEE26833
:103160006168286801F080FB40212868CAE72E6862
:1031700086420CD066450AD08E4208D0964206D0D0
:103180009E4204D041F2FC1102A001F0F8FD21683A
:103190002868B7E72E2E2F447269766572732F5315
:1031A000544D3332463178785F48414C5F44726900
:1031B0007665722F5372632F73746D333266317874
:1031C000785F68616C5F74696D2E6300002C01404C
:1031D0000004004000080040000C004000100040C7
:1031E00000140040704770B50446006801694FF054
:1031F0000005C943890715D4C168C943890711D49B
:10320000E91E01610120207720688069800720463F
:1032100002D0FFF7E7FF04E000F0CAF8204600F014
:1032200052FA257720680169C943490717D4C16854
:10323000C943490713D46FF00401016102202077CC
:103240002068806910F4407F204602D0FFF7CAFF53
:1032500004E000F0ADF8204600F035FA257720684C
:103260000169C943090716D4C168C943090712D4C3
:103270006FF008010161042020772068C069800791
:10328000204602D0FFF7AEFF04E000F091F82046A0
:1032900000F019FA257720680169C943C90617D4D7
:1032A000C168C943C90613D46FF010010161082039
:1032B00020772068C06910F4407F204602D0FFF7D5
:1032C00091FF04E000F074F8204600F0FCF9257747
:1032D00020680169C943C90708D1C168C943C90742
:1032E00004D1891E0161204600F0EEF920680169D1
:1032F000C943090609D4C168C943090605D46FF05A
:10330000800101612046FFF724FB20680169C94361
:10331000490609D4C168C943490605D46FF0400184
:103320000161204600F0DCF920680169C943890683
:103330000BD4C168C943890607D46FF0200101612D
:103340002046BDE87040FFF705BB70BD00B585B0F5
:103350000021009101910291039100681049884277
:103360001BD11048816941F0400181618069694643
:1033700000F0400004904FF4007000900220019093
:1033800003900948FEF766F90848416821F0C0013A
:1033900041F0E06141F0C001416005B000BD0000B6
:1033A000002C0140001002400018014000000140C4
:1033B000704700002DE9F04116000D4604460CD080
:1033C000042E0AD0082E08D00C2E06D03C2E04D095
:1033D00040F6EB5167A001F0D2FC2868602806D0C7
:1033E000702804D040F6EC5162A001F0C8FCA86837
:1033F00030B1022804D040F6ED515EA001F0BFFCD0
:10340000286930B1042804D040F6EE5159A001F0EB
:10341000B6FC94F83C00012814D0012784F83C70D5
:10342000022084F83D006149614A624BDFF888C19F
:103430004FF0804E4EB1042E2AD0082E4DD00C2EC7
:103440004AD16DE00220BDE8F081206888420CD0AE
:1034500070450AD0904208D0984206D0604504D00A
:1034600040F6FA5143A001F08AFC2946206801F099
:1034700073F82068816941F00801816120688169E1
:1034800021F004018161206881692A69114322E0E9
:10349000206888420CD070450AD0904208D09842EB
:1034A00006D0604504D040F60B6132A001F067FC05
:1034B0002946206801F0B6F82068816941F400616E
:1034C00081612068816921F480618161206881695E
:1034D0002A6941EA0221816146E0206888420CD0D5
:1034E00070450AD0904208D0984206D0604504D07A
:1034F00040F61C611FA001F042FC2946206801F043
:10350000FBF82068C16941F00801C1612068C16908
:1035100021F00401C1612068C1692A69114322E0D8
:10352000206888420CD070450AD0904208D098425A
:1035300006D0604504D040F62D610EA001F01FFCBE
:103540002946206801F042F92068C16941F4006110
:10355000C1612068C16921F48061C1612068C169CD
:103560002A6941EA0221C16184F83D70002084F893
:103570003C0068E72E2E2F447269766572732F53D4
:10358000544D3332463178785F48414C5F4472691C
:103590007665722F5372632F73746D333266317890
:1035A000785F68616C5F74696D2E6300002C014068
:1035B0000004004000080040000C004010B504006A
:1035C00043D02C492068884216D0B0F1804F13D0E8
:1035D0002949884210D0294988420DD0284988427B
:1035E0000AD02849884207D02749884204D040F2AF
:1035F0009B4126A001F0C3FBA06860B110280AD04F
:10360000202808D0402806D0602804D040F29C41F1
:103610001EA001F0B4FB206950B1B0F5807F07D047
:10362000B0F5007F04D040F29D4118A001F0A7FB47
:10363000A06930B1802804D040F29E4113A001F06F
:103640009EFB94F83D0010B107E0012010BD002062
:1036500084F83C00204600F035F8022084F83D0054
:10366000211D206800F028FF012084F83D00002083
:1036700010BD0000002C0140000400400008004084
:10368000000C004000100040001400402E2E2F447B
:103690007269766572732F53544D333246317878A0
:1036A0005F48414C5F4472697665722F5372632F95
:1036B00073746D3332663178785F68616C5F7469FA
:1036C0006D2E63007047704710B50448FFF77AFB12
:1036D000BDE810400148FFF71FBB00001C0300209D
:1036E0007047704770B5026804461068D168536926
:1036F00010F00F0F50D003F0010501F49076354320
:103700005DD0C20705D0CA0503D5E26B42F00102C5
:10371000E263420705D5DA0703D0E26B42F002020A
:10372000E263820705D5DA0703D0E26B42F00402B8
:10373000E263020705D5DA0703D0E26B42F0080224
:10374000E263E26B002A33D0800604D5880602D5F6
:10375000204601F0C9F820684069E16BC0F3801091
:10376000090700D428B3204601F0B0F82068416969
:1037700049061AD5416921F040014161606BA0B151
:103780001B494163606BFDF76BFC002810D0606B38
:10379000416BBDE870400847830610D58B060ED5F7
:1037A0002046BDE8704001F09FB82046FFF799FF22
:1037B00070BD2046FFF795FF0020E06370BD030653
:1037C00006D50B0604D52046BDE8704001F07EB951
:1037D0004006F3D54806F1D5D168204621F04001D6
:1037E000D160202184F8391000F02BFA70BD000060
:1037F000BD48000870B5040020D0A06933490028F6
:10380000334A344B20681BD088420AD0904208D0FB
:10381000984206D04FF4A3712FA001F0B0FAA0692E
:10382000F8B1A069B0F5807F1BD0B0F5007F18D04B
:10383000B0F5407F15D040F247110FE0012070BD78
:1038400088420ED090420CD098420AD0314988422A
:1038500007D03149884204D040F24B111EA001F03C
:103860008EFAA06838B1B0F5805F04D040F24D11F7
:1038700019A001F084FA94F83900002520B984F8E1
:103880003850204600F04AF8242084F83900206897
:10389000C16821F40051C160204601F071F8206830
:1038A000016921F4904101612068416921F02A01F8
:1038B00041612068C16841F40051C160E563202086
:1038C00084F8390084F83A00002070BD00380140C7
:1038D00000440040004800402E2E2F447269766557
:1038E00072732F53544D3332463178785F48414CD0
:1038F0005F4472697665722F5372632F73746D33F0
:1039000032663178785F68616C5F756172742E63BE
:1039100000000000004C004000500040F0B585B0B1
:103920000024009401940294039403685248514E79
:10393000051502210322B3421ED1C36943F40023BB
:10394000C361C36903F400230493836943F0100344
:1039500083618069CDE9005100F01000CDE90320BA
:10396000464D69462846FDF775FEE814CDE900048A
:1039700069462846029420E0414E7715B34220D193
:10398000836943F480438361836903F48043049330
:10399000836943F0040383618069CDE9007100F01D
:1039A0000400CDE90320374E69463046FDF752FE4C
:1039B000CDE90054694630460294FDF74BFE05B050
:1039C000F0BDDFF8C4C0314E314D634525D1C36928
:1039D00043F40033C361C36903F400330493836980
:1039E00043F0200383618069039200F0200004907B
:1039F0002020CDE9000169463046FDF72BFE40202E
:103A0000CDE90004694630460294FDF723FE68685C
:103A100040F0E06040F008002AE0DFF878C063453D
:103A2000CDD1C36943F48023C361C36903F4802308
:103A30000493836943F0200383618069039200F05B
:103A4000200004904FF48070CDE9000169463046B3
:103A5000FDF700FECDE90074694630460294FDF79B
:103A6000F9FD686820F0300040F0E06040F0300080
:103A70006860A4E7004C00400010024000100140C4
:103A8000003801400008014000440040001401409B
:103A9000000001400048004090F83A30202B22D12D
:103AA000F9B1F2B190F83830012B1CD081628285D7
:103AB000C2850021C163222280F83A2080F83810A4
:103AC0000168CA6842F48072CA6001684A6942F0BB
:103AD00001024A610068C16841F02001C160002014
:103AE00070470120704702207047000010B504465F
:103AF00000681F49884207D11E4800F0A3F8012240
:103B00001C491D48FFF7C8FF1C49206888420BD19B
:103B100018480221401CFCF791FE16491648012264
:103B2000491C4030FFF7B8FF1549206888420BD187
:103B300010480321401EFCF781FE0E490E48012269
:103B4000491E8030FFF7A8FF0E49206888420DD13A
:103B500008480421801EFCF771FE06490648012230
:103B6000891EBDE810404038FFF796BF10BD000029
:103B700000380140420000209C0300200044004027
:103B800000480040004C00402DE9F843044690F8FE
:103B900039001F4616460D46202850D1A5B19EB1CA
:103BA00094F8380001284AD0012084F838004FF0FA
:103BB0000008C4F83C80212084F83900FDF712FF8A
:103BC000A6848146E68426E00120BDE8F883E08CE7
:103BD000401EE084A0684B46B0F5805F4FF00002C5
:103BE0004FF080012046009703D000F0A0FFE8B915
:103BF0000DE000F09CFFC8B928882168C0F30800D8
:103C00004860206908B16D1C05E0AD1C03E0216827
:103C100015F8010B4860E08C0028D8D14B460022F3
:103C200040212046009700F082FF08B10320CCE736
:103C3000202084F8390084F838800020C5E702206D
:103C4000C3E7704770B50D4E01780D4D70780A29A5
:103C500003D02954401C707070BD2844002400F823
:103C6000014C0749012000F00DF8747000202C541D
:103C7000401CC0B23228FAD170BD000032000020D2
:103C8000A201002070B52C4C0E460025B8B12B487F
:103C9000FCF7E2FA294831463230FCF7DDFA2748D2
:103CA000323005720120A07025A0FCF789FE304655
:103CB000FCF786FEBDE8704024A0FCF781BEA0782A
:103CC000002838D0A57022A11C48FCF7B7FAB0B183
:103CD00020A11A48FCF7B2FA98B122A11748FCF7C4
:103CE000ADFA80B122A11548FCF7A8FA68B11348D3
:103CF00022A13230FCF7A2FA48B1002116E00121DE
:103D000014E0022112E0032110E004210EE00B4A2E
:103D1000082002F1640303E01C18401C04F8081C8E
:103D2000115C0D29F8D00A29F6D00521BDE87040B4
:103D3000012000F0EDB870BD32000020D401002059
:103D40005B4C4F52412052585D3A20000D0A000052
:103D50006F6B0000696E76616C69645F706172619F
:103D60006D000000726164696F5F74785F6F6B0053
:103D7000726164696F5F65727200000072616469EC
:103D80006F5F72780000000010B5044608A0FCF7D1
:103D900017FE2046FCF714FE2046FCF748FA2146A1
:103DA00082B2BDE810404FF47A730448FFF7ECBECE
:103DB0005B4C4F52412054585D3A20009C03002038
:103DC00070B5434C00250126A078012805D100F0EC
:103DD000F7FF10B1A570E67001E0A07838B9607AFD
:103DE000012804D101F068F958B100206072E07830
:103DF000012808D0022829D0032846D0042863D1FE
:103E000045E00120F2E7207930B10121002000F0E7
:103E10007FF830B1E67106E02EA0FFF7B5FF2671FE
:103E200052E0E07920B30521002000F071F8F8B1EC
:103E3000A07A20B10320E0702571E57102E0E078FE
:103E4000401CE070012000F09BFF3DE0607930B144
:103E50000121002000F05CF858B1E6710BE0002071
:103E600000F08EFF20B13421442000F03BF8667151
:103E70002AE0E07940B30321002000F049F818B3AC
:103E8000E57165710420E0701EE00220E070A07909
:103E900030B10121002000F03BF858B126720BE050
:103EA000002000F06DFF78B13421442000F01AF8B2
:103EB000A67109E0207A38B10321002000F028F82B
:103EC00010B12572A571E670BDE8704000F018BA17
:103ED00004000020726164696F20727820300D0A3E
:103EE000000000007FB506A43CCC8DE83C008DF8B6
:103EF00009008DF80A106846FFF746FF7FBD0000F5
:103F0000726164696F2074782000000D0A0000005F
:103F1000044A18B10120505400207047505C00231F
:103F2000535470476C000020FEB500212E480091CC
:103F300001912C4A0291026092158260012505735D
:103F4000017506244FF460220461C2614160FCF7F0
:103F500085FE10B12548FCF733FD0226CDE900654A
:103F60000425694620480295FCF75EFD10B11F4804
:103F7000FCF726FD0327CDE9007669461A48FCF7D1
:103F800053FD10B11948FCF71BFDCDE900576946F8
:103F90001548FCF749FD10B11448FCF711FD052642
:103FA000CDE9006569461048FCF73EFD10B10F48A9
:103FB000FCF706FDCDE9004669460B48FCF734FDE9
:103FC00010B10A48FCF7FCFC0720CDE90004694663
:103FD0000548FCF729FD002802D00448FCF7F0FC56
:103FE000FEBD0000002401406C020020200A0008F1
:103FF0002DE9F04F85B000244F48009401940294BD
:104000000394816941F040018161816901F04001BF
:104010000491816941F010018161816901F0100111
:104020000491816941F004018161816901F0040119
:104030000491816941F008018161816901F0080101
:104040000491816941F02001816180694FF6FF454B
:1040500000F020000490002229463848FDF78CFC2F
:10406000DFF8DCB04FF2FE17002239465846FDF764
:1040700083FC41F60308002241463248FDF77CFCF0
:104080004BF6E779002249462F48FDF775FC4FF6BD
:104090009F4A002251462D48FDF76EFC0126CDE9CE
:1040A0000056022569462548CDE90245FDF7D2FABA
:1040B000CDE9007669465846CDE90245FDF7CAFAD2
:1040C00040F20120CDE90004694658460294FDF70C
:1040D000C1FACDE9008669461A48CDE90245FDF7E7
:1040E000B9FACDE9009669461748CDE90245FDF7D2
:1040F000B1FAEF01CDE90074694610480294FDF76A
:10410000A9FA6803CDE9000469460F480294FDF757
:10411000A1FACDE900A669460C48CDE90245FDF7B4
:1041200099FACDE90075694606480395FDF792FABC
:1041300005B0BDE8F08F00000010024000180140FB
:104140000010014000080140000C01400014014033
:1041500010B596B000240F941094119412941394F7
:104160001C2108A81494FCF757F820216846FCF796
:1041700053F82A482849C0E900148460C4600461E7
:1041800044618461FEF70EFD10B12548FCF718FC70
:104190004FF480500F900FA92048FEF76DFE10B12C
:1041A0001F48FCF70DFC1D48FFF708FA10B11C482A
:1041B000FCF706FC139413A918481494FEF76CFC42
:1041C00010B11748FCF7FCFB6020CDE908040A9405
:1041D0000B940C940D94002208A910480E94FFF73C
:1041E000E9F810B10E48FCF7EBFB00944FF40050D7
:1041F000CDE904400294019403946946074807946A
:10420000FEF7AAFB10B10648FCF7DAFB0348FFF7FC
:104210009DF816B010BD0000002C01409C0200204B
:10422000200A000810B586B00024164800940194B6
:104230000294039404944FF080410594C0E9001463
:104240008460C46004618461FEF7ACFC10B10E4868
:10425000FCF7B6FB4FF48050009069460948FEF722
:104260000BFE10B10848FCF7ABFB049404A9054809
:104270000594FEF711FC002802D00348FCF7A0FBD0
:1042800006B010BDDC020020200A000810B586B080
:10429000002419480094019402940394049415494D
:1042A000059401604FF6E851C0E9011440F2DC5179
:1042B000C0E903148461FEF775FC10B10F48FCF7E8
:1042C0007FFB4FF48050009069460B48FEF7D4FD09
:1042D00010B10A48FCF774FB049404A9064805943D
:1042E000FEF7DAFB002802D00448FCF769FB06B0B1
:1042F00010BD0000000400401C030020200A00083C
:1043000000B505488DB00068426A04A1684600F017
:1043100053FC0DB000BD00001C0300202569000007
:1043200070B5204A204903685578002465B10B60B8
:1043300043684B6083688B60C368CB6003690B6123
:104340004069486154701CE00D682B445B080B60A9
:104350004B6845682B445B084B608B6885682B4431
:104360005B088B60CB68C5682B445B08CB600B692E
:1043700005692B445B080B614B6940691844400890
:1043800048611078642809D31470012050700648E1
:10439000FCF7FEF8002800D0012070BD401C107012
:1043A000002070BD00000020540000207047000075
:1043B00030B59BB038216846FBF72EFF14210EA8BC
:1043C000FBF72AFF202113A8FBF726FF012528046D
:1043D0000421CDE902010224CDE9084000950190B5
:1043E00005954FF4E010CDE90A044FF4C0600C903D
:1043F00040200D906846FDF789FF10B11448FCF786
:10440000DFFA0F20CDE90E0400204FF48061CDE9E2
:104410001001129002210EA8FDF770FD10B10C489A
:10442000FCF7CEFA4FF400401590139413A8FDF753
:10443000F1FB10B10648FCF7C3FA00224FF0C0614F
:104440001046FDF7F3FE034805671BB030BD0000C2
:10445000200A0008000042421048016841F00101B2
:10446000016041680E4A1140416001680D4A1140E7
:104470000160016821F480210160416821F4FE019E
:104480004160016821F0A05101604FF47F0181601B
:104490000021C1620449C003086070470010024057
:1044A0000000FFF0FFFFF6FE08ED00E00148FEF718
:1044B0009ABE00001C030020F0B50268194B1A4C8C
:1044C0001A4D1B4E4FF08047984207D0B84205D096
:1044D000A04203D0A84201D0B04204D122F0700C17
:1044E0004A6842EA0C02984207D0B84205D0A0427E
:1044F00003D0A84201D0B04203D122F44074CA686C
:1045000022434C6922F08002224302608A68C26220
:104510000A688262984201D10969016301214161FF
:10452000F0BD0000002C01400004004000080040E5
:10453000000C004010B5846842EA032224F47F4452
:104540000A432243826010BD826822F070020A434F
:1045500042F00701816070472DE9F0410446006A8E
:104560000D4620F001002062206A6768A169AE68EC
:1045700020F0020021F07302064329681A4841EA3C
:104580000208844228D1E86830B1082804D041F2FA
:10459000017116A000F0F3FBE86826F0080108435B
:1045A00020F00406A869B0F5007F05D020B141F2E3
:1045B0000E710EA000F0E3FB6869B0F5807F05D0B6
:1045C00020B141F20F7109A000F0D9FB27F440712E
:1045D0006869AF69084307436760C4F81880686872
:1045E00060632662BDE8F081002C01402E2E2F442E
:1045F0007269766572732F53544D33324631787831
:104600005F48414C5F4472697665722F5372632F25
:1046100073746D3332663178785F68616C5F74698A
:104620006D2E63002DE9F0410446006A0D4620F02E
:1046300010002062206A6768A1692A6821F4E641B7
:1046400041EA0228A96820F0200040EA01161B4830
:1046500084422BD1E86830B1082804D041F24C7173
:1046600017A000F08CFBE96826F0800040EA0110FA
:1046700020F04006A869B0F5007F05D020B141F2D6
:104680005A710FA000F07BFB6869B0F5807F05D000
:1046900020B141F25B710AA000F071FB696927F457
:1046A000406040EA8100A96940EA81076760C4F878
:1046B00018806868A0632662BDE8F081002C014084
:1046C0002E2E2F447269766572732F53544D3332F8
:1046D000463178785F48414C5F4472697665722F45
:1046E0005372632F73746D3332663178785F68610B
:1046F0006C5F74696D2E63002DE9F0410446006A19
:104700000D4620F480702062206A6768E16920F419
:10471000007021F07302296841EA0208A96840EAA2
:1047200001261B4884422BD1E86830B1082804D008
:1047300041F2977117A000F022FBE96826F40060AF
:1047400040EA012020F48066A869B0F5007F05D01A
:1047500020B141F2A4710FA000F011FB6869B0F51F
:10476000807F05D020B141F2A5710AA000F007FBBF
:10477000696927F4405040EA0110A96940EA01172D
:104780006760C4F81C806868E0632662BDE8F08159
:10479000002C01402E2E2F447269766572732F53C0
:1047A000544D3332463178785F48414C5F447269EA
:1047B0007665722F5372632F73746D33326631785E
:1047C000785F68616C5F74696D2E63002DE9F0415C
:1047D0000446006A0D4620F480502062206A666814
:1047E000E1692A6821F4E64141EA0228A96820F437
:1047F000005040EA01370D4884420ED16869B0F597
:10480000807F05D020B141F2E37109A000F0B7FA32
:10481000696926F4804040EA81166660C4F81C800D
:10482000686820642762BDE8F0810000002C014028
:104830002E2E2F447269766572732F53544D333286
:10484000463178785F48414C5F4472697665722FD3
:104850005372632F73746D3332663178785F686199
:104860006C5F74696D2E630010B5036A046A24F0EE
:1048700001040462846924F0F00444EA021423F081
:104880000A020A438461026210BD10B5036A23F074
:10489000100303628369046A23F4704343EA02321B
:1048A00024F0A00343EA01118261016210BD0000FF
:1048B0000148FEF717BF00005C03002010B5406AF6
:1048C0000021C185C184FEF70CFF10BD0168CA68D4
:1048D00022F49072CA6001684A6922F001024A61BA
:1048E000202180F83A10704710B590F83A1022292C
:1048F00001D0022010BD8168B1F5805F11D001693F
:10490000002901681FD0496801F07F03816A4A1CB1
:1049100082620B70C18D491E0904090CC18518D033
:104920002BE00269816A002A0268526805D0D2B27F
:104930000A80816A491C8162ECE7C2F308020A809E
:10494000816A891CF7E74A68816A4B1C83620A7096
:10495000E0E70168CA6822F02002CA600168CA68FC
:1049600022F48072CA6001684A6922F001024A6139
:10497000202180F83A10FFF7B9F8002010BD0000A0
:104980002DE9F041044640683F49884204D940F689
:10499000FD313EA000F0F3F9E06838B1B0F5005FFA
:1049A00004D040F6FE3139A000F0E9F9206950B199
:1049B000B0F5806F07D0B0F5C06F04D040F6FF317E
:1049C00032A000F0DCF960694FF6F371084200D1C3
:1049D00020B94FF440612DA000F0D1F920680169A1
:1049E000E26821F44051114301612169A068226805
:1049F000084361690843D16841F20C63994301435C
:104A0000D16020684169A26921F44071114341617C
:104A10002D49206864253226884202D1FDF794FB97
:104A200001E0FDF781FB00EBC00101EB00116068C4
:104A30006FF018078000B1FBF0F2B2FBF5F2B1FBAA
:104A4000F0F37A4303EB8202B1FBF0F306EB0212C0
:104A5000B2FBF5F2B3FBF5F302F0F00202EB031246
:104A6000B1FBF0F3B1FBF0F0B0FBF5F0784303EBF2
:104A7000800006EB0010B0FBF5F0216800F00F009D
:104A800010448860BDE8F08120AA44002E2E2F44F7
:104A90007269766572732F53544D3332463178788C
:104AA0005F48414C5F4472697665722F5372632F81
:104AB00073746D3332663178785F68616C5F7561ED
:104AC00072742E63000000000038014090F8391025
:104AD000212901D0022070478168B1F5805F016A09
:104AE0000BD04A1C0262026809785160C18C491ED1
:104AF0000904090CC1840ED017E009880268C1F3CB
:104B00000801516001690029016A02D0491C016253
:104B1000ECE7891CFBE70168CA6822F08002CA60E2
:104B20000068C16841F04001C160002070472DE974
:104B3000F041984617460E460446069D1DE0681C47
:104B40001BD02DB1FCF74EFFA0EB0800A84214D9F2
:104B50002068C16821F4D071C1602068416921F0EA
:104B600001014161202084F8390084F83A000020D6
:104B700084F838000320BDE8F0812068006836EA38
:104B8000000004D00020B842D9D00020F3E7012073
:104B9000F9E700000148FEF7A5BD00009C030020D6
:104BA0000148FEF79FBD0000DC0300200148FEF72E
:104BB00099BD00001C0400200FB4084B10B504A9D7
:104BC00002AA039800F02CF8044602A9002000F085
:104BD000D1F8204610BC5DF814FB0000754D0008AC
:104BE0000907090E002804DB00F1E02080F800141A
:104BF000704700F00F0000F1E02080F8141D7047AE
:104C000002E008C8121F08C1002AFAD17047704795
:104C1000002001E001C1121F002AFBD170470000F3
:104C20002DE9FF4F89B09B460446002506E0252864
:104C30000BD05A460B999047641C6D1C20780028B5
:104C4000F5D10DB02846BDE8F08F0027B846012207
:104C5000474900E0074314F8013F203B02FA03F004
:104C60000842F7D120782E2819D114F8010F47F007
:104C700004072A280ED06FF02F022078A0F130010F
:104C800009290CD808EB880102EB410100EB01086F
:104C9000641CF2E70A98641C50F8048B0A90207890
:104CA0000028CED0642808D0692806D075281ED0E8
:104CB0005A460B9990476D1C58E00A994FF00A0923
:104CC00001C90A91002802DA40422D2102E039058B
:104CD00004D52B218DF82010012103E0F90704D021
:104CE0002021F7E78A4608AE0DE00021FAE70A998D
:104CF0004FF00A0901C90A91F7E74946FBF7B5FAEF
:104D0000303106F8011D0028F7D1ADEB060000F1A7
:104D10002009780701D44FF00108C84502DDA8EB4F
:104D2000090000E000208046002706E008A85A4657
:104D3000C05D0B9990476D1C7F1C5745F6DB04E066
:104D400030205A460B9990476D1CB8F10001A8F12C
:104D50000108F5DC05E016F8010B5A460B9990475F
:104D60006D1CB9F10001A9F10109F4DC641C65E7CF
:104D7000092801000A68531C0B60107070477047C7
:104D80000D490968496A0D4A50B101F5487040F271
:104D9000DC53506098420DDDA1F57A71516009E055
:104DA000506800F114028A4204DD1438884201DAA6
:104DB00001207047002070471C03002038000020AD
:104DC00070B5224C00250126207808283CD2DFE867
:104DD00000F03B040A0F13171B29607808B11CA0D0
:104DE00023E0002115E06078002811D01BA01CE012
:104DF000607868B120A018E0607848B123A014E082
:104E0000607828B126A010E0607808B12AA00CE0F4
:104E100001210020FFF77CF8B0B166702078401CBB
:104E2000207011E0607820B128A0FEF7ADFF65701A
:104E30000AE000210846FFF76BF828B16670207879
:104E4000401C2070012070BD002070BD3800002083
:104E50007379732072657365740D0A0072616469F9
:104E60006F2073657420667265712038373030307A
:104E7000303030300D0A0000726164696F20736554
:104E800074207077722031350D0A000072616469F8
:104E90006F20736574207366207366370D0A0000F7
:104EA000726164696F207365742061666362772044
:104EB0003130300D0A000000726164696F20736543
:104EC000742077647420300D0A0000006D61632047
:104ED00070617573650D0A0008B5FCF789FDFFF771
:104EE00067FAFFF785F8FFF7D1F96548416941F0A6
:104EF000010141614069002200F00100009011466B
:104F00000B20FCF7F7FD0B20FCF7C2FDFFF70CF8B8
:104F1000FFF71EF95C485B494FF4E136002401605D
:104F2000C0E901640C25C460C0E904458461C46122
:104F3000FEF760FC10B15548FBF742FD524854495A
:104F4000403001604FF46141C0E90114C460C0E920
:104F500004458461C461FEF74DFC10B14B48FBF77A
:104F60002FFD49484B4980300160C0E90164C460AD
:104F7000C0E904458461C461FEF73CFC10B14348BC
:104F8000FBF71EFDFFF74EF93F484349C030016073
:104F9000C0E90164C460C0E904458461C461FEF7EE
:104FA00029FC10B13948FBF70BFD002211462520E2
:104FB000FCF7A0FD2520FCF76BFD00220121342029
:104FC000FCF798FD3420FCF763FD00220121262028
:104FD000FCF790FD2620FCF75BFD00221146272000
:104FE000FCF788FD2720FCF753FD2CA0FBF7E8FC1D
:104FF0002C490622A1F5F870FBF788FF2248012210
:1050000029494030FEF748FD27491F480122491C25
:105010008030FEF741FD244922480122491E4038D4
:10502000FEF73AFD20490122891E1748FEF734FD9C
:1050300015484038FDF770FE0020FBF7B9FB1BA0B8
:10504000FBF7E2F901242246E1021948FCF794FC3F
:105050000020FBF795FA10B1022000F02DF811485E
:10506000FFF75EF9FEF7ACFE12A10020FEF70AFE84
:10507000022210A10020FBF715FC002CEFD0E7E77F
:1050800000100240004C00405C030020200A000891
:105090000038014000440040004800405354415251
:1050A000540D0A005C040020420000205000000063
:1050B000000801406100000070B5234C0646002541
:1050C000607B09283DD2DFE800F03C05081C202960
:1050D00020302000FBF7CCF930E00020FBF744FA49
:1050E00078B3FBF737FA012E05D0022E05D0032E38
:1050F00005D0657325E0032022E0052020E007208D
:105100001EE0FBF7FBF9C8B91BE00020FBF72CFA07
:10511000B8B1FBF71FFA6573012070BD0020FBF7E3
:1051200023FA70B1FBF7D8F908E00020FBF71CFA6E
:1051300038B1FF2211461046FBF7A4F9607B401CF2
:105140006073002070BD000004000020000000001B
:105150000000000001020304060708090000000027
:1051600001020304845100080000002054000000E4
:10517000004C0008D85100085400002064080000CA
:10518000104C0008000100000101010000000000B7
:10519000000001000101000000000000530FFF00AB
:1051A000003B530CFF00003B46FFFFFF010101FCE9
:1051B0007503FC75033B00000000000001010100C5
:1051C00000000000000000000100000010000000CE
:0851D000000000000024F400BF
:04000005080001519D
:00000001FF
