:020000040800F2
:1000000000000220614B0008DD280008DF280008FE
:10001000E1280008E3280008E528000800000000A7
:10002000000000000000000000000000E7280008B9
:10003000E928000800000000EB280008ED2800086F
:10004000B14B0008B14B0008B14B0008B14B0008A0
:10005000B14B0008B14B0008B14B0008B14B000890
:10006000F5280008FF280008B14B0008B14B000834
:10007000B14B0008B14B0008B14B0008B14B000870
:10008000B14B0008B14B0008B14B0008B14B000860
:10009000B14B0008B14B0008B14B0008B14B000850
:1000A000B14B0008B14B0008B14B0008B14B000840
:1000B000B14B0008B14B0008B14B0008B14B000830
:1000C000B14B0008B14B0008B14B0008B14B000820
:1000D000B14B000809290008B14B00081929000894
:1000E000B14B0008B14B0008B14B0008B14B000800
:1000F000B14B0008B14B0008B14B0008B14B0008F0
:10010000B14B0008B14B0008B14B0008B14B0008DF
:10011000B14B0008B14B000829290008B14B000879
:1001200039290008B14B0008B14B0008B14B000859
:10013000B14B00080000000000000000B14B0008B7
:10014000B14B0008B14B0008B14B0008B14B00089F
:10015000B14B0008B14B0008B14B0008B14B00088F
:10016000B14B0008B14B0008B14B0008B14B00087F
:10017000B14B0008B14B0008000000000000000077
:08018000B14B0008B14B00086F
:1001900010B5054C237833B9044B13B10448AFF3C1
:1001A00000800123237010BD3C01002000000000EE
:1001B0005854000808B5034B1BB103490348AFF37B
:1001C000008008BD000000004001002058540008D5
:1001D00053B94AB9002908BF00281CBF4FF0FF31AE
:1001E0004FF0FF3000F072B9ADF1080C6DE904CEAC
:1001F00000F006F8DDF804E0DDE9022304B0704702
:100200002DE9F047089E04468846002B4BD18A42D0
:10021000154667D9B2FA82F24AB1C2F1200701FA53
:1002200002F320FA07F7954047EA030894404FEAA3
:10023000154E230CB8FBFEF71FFA85FC0EFB178842
:1002400043EA084307FB0CF1994209D9EB1807F17F
:10025000FF3080F01B81994240F21881023F2B440D
:100260005B1AA4B2B3FBFEF00EFB103344EA034466
:1002700000FB0CFCA44509D92C1900F1FF3380F0D8
:100280000781A44540F2048102382C4440EA07402B
:10029000A4EB0C0400271EB1D4400023C6E90043A0
:1002A0003946BDE8F0878B4209D9002E00F0EB807B
:1002B0000027C6E9000138463946BDE8F087B3FAA1
:1002C00083F7002F47D18B4202D3824200F2FA809B
:1002D000841A61EB030301209846002EE0D0C6E9A2
:1002E0000048DDE702B9FFDEB2FA82F2002A40F0F0
:1002F0008F80491B4FEA154E1FFA85F80127B1FB85
:10030000FEFC230C0EFB1C1143EA014308FB0CF11D
:10031000994207D9EB180CF1FF3002D2994200F252
:10032000CD808446591AA3B2B1FBFEF00EFB101427
:1003300043EA044408FB00F8A04507D92C1900F152
:10034000FF3302D2A04500F2B6801846A4EB0804A1
:1003500040EA0C409FE7C7F1200CBB4022FA0CFE9C
:100360004EEA030E01FA07F420FA0CF521FA0CF319
:100370004FEA1E482543B3FBF8F92C0C08FB193350
:100380001FFA8EFA44EA034309FB0AF49C4202FA7C
:1003900007F200FA07F10BD91EEB030309F1FF3056
:1003A00080F087809C4240F28480A9F10209734466
:1003B0001B1BADB2B3FBF8F008FB103345EA034456
:1003C00000FB0AFAA24508D91EEB040400F1FF3332
:1003D0006BD2A24569D90238744440EA0940A0FBB7
:1003E0000289A4EB0A044C45C2464B4654D351D073
:1003F000002E69D0B1EB0A0564EB030404FA0CFC8F
:10040000FD40FC404CEA0505C6E90054002747E7DB
:10041000C2F1200320FA03F7954001FA02F021FA15
:1004200003F34FEA154E3843010CB3FBFEF71FFAF6
:1004300085F80EFB173341EA034107FB08F38B42B3
:1004400004FA02F407D9691807F1FF3C2FD28B4256
:100450002DD9023F2944CB1A81B2B3FBFEF00EFB2B
:10046000103341EA034100FB08F38B4207D96918B6
:1004700000F1FF3C17D28B4215D902382944C91A22
:1004800040EA07473BE73746304609E70746E7E6D5
:100490001846FBE64145ABD2B8EB020A69EB0E0207
:1004A00001381346A4E76046E9E7184695E7674632
:1004B000D1E781467CE702382C4447E7ACF1020CD7
:1004C0002B442FE7384608E73746E9E6704700BF78
:1004D00010F8012B11F8013B012A28BF9A42F7D0EE
:1004E000D01A7047034613F8012B002AFBD1181AC3
:1004F000013870470000000000000000000000000C
:1005000001F0FF01102A2BDB10F0070F08D010F8C4
:10051000013B013A8B422DD010F0070F42B3F6D1C8
:10052000F0B441EA012141EA014122F007047FF0E1
:1005300000070023F0E80256083C85EA010586EA38
:10054000010685FA47F5A3FA87F586FA47F6A5FA74
:1005500087F68EB9EED1F0BC01F0FF0102F0070280
:1005600032B110F8013B013A83EA010313B1F8D12B
:100570000020704701387047002D06BF354603380C
:10058000073815F0010F07D1013015F4807F02BF45
:10059000013015F4C03F0130F0BC0138704700BF96
:1005A00010B5B0B91B4B93F832308BB1194800230A
:1005B00080F832301849FFF78BFF90B11749154882
:1005C000FFF786FF88B116491248FFF781FF80B117
:1005D00010BD104C204604F05AFB012384F8323041
:1005E000F6E7104800F000F9E8E70F4800F0FCF8E3
:1005F000E9E70E4800F0F8F8BFF34F8F0C49CA68DE
:1006000002F4E0620B4B1343CB60BFF34F8F00BF8C
:10061000FDE700BF580100208C7F00089C7F000888
:10062000AC7F0008947F0008A07F0008B47F00081A
:1006300000ED00E00400FA0501783B2909D00F4ADB
:1006400092F86630D01880F83410013382F86630A2
:10065000704710B5094C04F134010120FFF7A0FFE9
:10066000002384F8663005E0044A1A44002182F829
:1006700034100133322BF7D110BD00BF58010020D8
:1006800070B500282BD1384B93F83031002B50D067
:100690003548002380F8303134496830FFF718FFBF
:1006A000002847D032493348FFF712FF002846D0D0
:1006B00031493048FFF70CFF002845D02F492D481D
:1006C000FFF706FF002844D02D492E48FFF700FF12
:1006D000002843D00021012000F0FCFE29E00C4658
:1006E000214D05F1680004F0D2FA05F1CC0621464F
:1006F000304604F0CCFA002385F8D4302049304647
:10070000FFF7E6FE40B9092200E00132164B134420
:1007100093F868300D2BF8D1134B012283F8302168
:10072000194800F061F8204600F05EF8174800F024
:100730005BF870BD0121084600F0CCFEF9E702210C
:10074000012000F0C7FEF4E70321012000F0C2FE03
:10075000EFE70421012000F0BDFEEAE705210120BA
:1007600000F0B8FEE5E700BF58010020D47F000884
:10077000D87F0008C0010020E87F0008F47F00084F
:10078000BC7F000824020020C87F0008987F000872
:1007900038B501780A2909D0124A92F83131D018B7
:1007A00080F83411013382F8313138BD0D4D95F8A0
:1007B0003131013B2B44002483F8344105F59A7113
:1007C0000120FFF75DFF85F83141234606E0054A29
:1007D0001A44002182F834110133DBB2322BF6D1F6
:1007E000E3E700BF5801002010B50446FFF77AFE8A
:1007F0004FF4FA6382B22146014804F019F810BDA3
:100800000C04002010B504460848FFF7EDFF204611
:10081000FFF7EAFF2046FFF765FE4FF4FA6382B266
:100820002146034804F004F810BD00BF0080000812
:10083000A804002008B501F047FE08BD2DE9F041ED
:1008400084B00190002757E00134A4B27F2C51D826
:10085000E5B2FEB2019BADF80C301B0C8DF80E30EA
:1008600015F0800F08D116F0800F05D1C5F17F0576
:10087000EDB2C6F17F06F6B215F0800FE4D116F0A6
:10088000800FE1D1DFF88080002198F8000001F0AE
:10089000FFFD0121284601F0FBFD01217F2001F031
:1008A000F7FD002198F8010001F0F2FD012130462A
:1008B00001F0EEFD01217F2001F0EAFD002198F812
:1008C000020001F0E5FD9DF80E309DF80D50C5F3D6
:1008D000C20040EAC3000121C0B201F0D9FD9DF978
:1008E0000C0000F01F0040EA45100121C0B201F0E9
:1008F000CFFDA9E70137BFB27F2F01D80024A5E7BC
:1009000004B0BDE8F08100BFBC0000202DE9F04F2D
:1009100085B09DF83C4001948418013C7F2C6CDC30
:10092000CC18013C7F2C68DC009390468B468246B5
:1009300000275BE00135EDB2454555D205EB0A04D1
:10094000E4B207EB0B06F6B20E9BADF80C301B0CB5
:100950008DF80E3014F0800F08D116F0800F05D1FD
:10096000C4F17F04E4B2C6F17F06F6B214F0800F42
:10097000E0D116F0800FDDD1DFF88C90002199F8DE
:10098000000001F085FD0121204601F081FD0121DB
:100990007F2001F07DFD002199F8010001F078FD34
:1009A0000121304601F074FD01217F2001F070FD2E
:1009B000002199F8020001F06BFD9DF80E309DF8C2
:1009C0000D40C4F3C20040EAC3000121C0B201F0EF
:1009D0005FFD9DF90C0000F01F0040EA441001216A
:1009E000C0B201F055FDA5E70137FFB2009B9F4261
:1009F00001D20025A0E7019B13B905B0BDE8F08F37
:100A0000FFF718FFF9E700BFBC000020002806DB55
:100A1000002907DB88420ADC07DB012070474042DF
:100A200000B2F5E7494209B2F4E70020704701201F
:100A3000704700002DE9F0472DED028B88B09DF83E
:100A40004C6010F0800F40F04E8104460D46174672
:100A5000984612F0800F40F0468111F0800F40F070
:100A6000428113F0800F40F03E81904200F23881C5
:100A700027D0454500F08480BC4200F0E3803B1B5A
:100A8000A8EB050107EE901AB8EEE77A019307EE9E
:100A9000903AF8EEE77AC7EE278A07EE905AB8EE5A
:100AA000E78A07EE904AF8EEE77A67EEA87A38EE22
:100AB000678A1846FFF7AAFF002800F07E8124B25B
:100AC00018E19942D5D00DB205E0A1461AE0A14641
:100AD00018E001352DB2454580F20281EFB2129B3C
:100AE000ADF80C301B0C8DF80E3014F0800FECD1EB
:100AF00017F0800FEBD1C4F17F095FFA89F9C7F1D4
:100B00007F07FFB219F0800FE3D117F0800FE0D11B
:100B1000DFF878A300219AF8000001F0B9FC012168
:100B2000484601F0B5FC01217F2001F0B1FC002115
:100B30009AF8010001F0ACFC0121384601F0A8FC54
:100B400001217F2001F0A4FC00219AF8020001F0AD
:100B50009FFC9DF80E309DF80D70C7F3C20040EA6F
:100B6000C3000121C0B201F093FC9DF90C0000F01C
:100B70001F0040EA47100121C0B201F089FCA8E73C
:100B8000BC423FF479AF24B205E0A9461CE0A94677
:100B90001AE0013424B2BC4280F2A2805FFA84F8E9
:100BA000129BADF810301B0C8DF8123018F0800F2E
:100BB000EBD115F0800FEAD1C8F17F085FFA88F811
:100BC000C5F17F095FFA89F918F0800FE1D119F0BA
:100BD000800FDED1DFF8B4A200219AF8000001F006
:100BE00057FC0121404601F053FC01217F2001F018
:100BF0004FFC00219AF8010001F04AFC012148460F
:100C000001F046FC01217F2001F042FC00219AF80E
:100C1000020001F03DFC9DF812309DF81180C8F3F0
:100C2000C20040EAC3000121C0B201F031FC9DF9CD
:100C3000100000F01F0040EA48100121C0B201F08E
:100C400027FCA6E745457FF41AAF129BADF8143098
:100C50001B0C8DF8163014F0800F08D115F0800FA2
:100C600005D1C4F17F04E4B2C5F17F05EDB214F003
:100C7000800F35D115F0800F32D1844F00213878A4
:100C800001F006FC0121204601F002FC01217F2039
:100C900001F0FEFB0021787801F0FAFB01212846E3
:100CA00001F0F6FB01217F2001F0F2FB0021B87872
:100CB00001F0EEFB9DF816309DF81540C4F3C2001C
:100CC00040EAC3000121C0B201F0E2FB9DF914002B
:100CD00000F01F0040EA44100121C0B201F0D8FB2F
:100CE000002E40F0CF8008B0BDEC028BBDE8F0874D
:100CF000013424B2BC42F3DC5FFA84F807EE904A78
:100D0000F8EEE77A67EEA87A77EE887AFCEEE77A73
:100D1000CDED017A9DF80450129BADF818301B0CF4
:100D20008DF81A3018F0800F09D115F0800F06D118
:100D3000C8F17F085FFA88F8C5F17F05EDB218F0B9
:100D4000800FD5D115F0800FD2D1DFF8409100216E
:100D500099F8000001F09CFB0121404601F098FB4E
:100D600001217F2001F094FB002199F8010001F09E
:100D70008FFB0121284601F08BFB01217F2001F030
:100D800087FB002199F8020001F082FB9DF81A30E0
:100D90009DF81950C5F3C20040EAC3000121C0B25A
:100DA00001F076FB9DF9180000F01F0040EA4510A5
:100DB0000121C0B201F06CFB9AE72DB201E00135D0
:100DC0002DB245458CDC07EE905AF8EEE77A77EEC7
:100DD000C87A87EEA87AFCEEC77ACDED017A9DF845
:100DE0000440EFB2129BADF81C301B0C8DF81E3086
:100DF00014F0800F08D117F0800F05D1C4F17F04E3
:100E0000E4B2C7F17F07FFB214F0800FD7D117F01B
:100E1000800FD4D1DFF87490002199F8000001F020
:100E200037FB0121204601F033FB01217F2001F037
:100E30002FFB002199F8010001F02AFB012138461F
:100E400001F026FB01217F2001F022FB002199F80F
:100E5000020001F01DFB9DF81E309DF81D40C4F3FB
:100E6000C20040EAC3000121C0B201F011FB9DF9AC
:100E70001C0000F01F0040EA44100121C0B201F044
:100E800007FB9CE7FFF7D6FC2DE700BFBC00002066
:100E90002DE9F04F89B080460191029203939DF8AD
:100EA0004C90A0F1410A5FFA8AFABAF1190F08D9F9
:100EB000A0F16103DBB2192B05D8A0F1470A5FFA54
:100EC0008AFA002551E1A0F13003DBB2092B04D8E6
:100ED00000F1040A5FFA8AFAF3E72E280FD02528DA
:100EE00010D02A2811D03E2812D03C2813D02D280B
:100EF00002D04FF0410AE4E74FF0440AE1E74FF037
:100F0000400ADEE74FF03F0ADBE74FF03E0AD8E742
:100F10004FF0420AD5E74FF0430AD2E7019BE718AA
:100F2000FFB2029B5E1BF6B20D36F6B2039BADF824
:100F300014301B0C8DF8163017F0800F08D116F006
:100F4000800F05D1C7F17F07FFB2C6F17F06F6B269
:100F500017F0800F3DD116F0800F3AD1DFF834B290
:100F600000219BF8000001F093FA0121384601F0BE
:100F70008FFA01217F2001F08BFA00219BF80100FC
:100F800001F086FA0121304601F082FA01217F202A
:100F900001F07EFA00219BF8020001F079FA9DF839
:100FA00016309DF81560C6F3C20040EAC300012167
:100FB000C0B201F06DFA9DF9140000F01F0040EA84
:100FC00046100121C0B201F063FA02E0B9F1000F4E
:100FD0006ED10134E4B20A2C00F2C580B8F1200FC2
:100FE000F4D005EB850205EB42029C2303FB0A22A9
:100FF000674B13441B5D002B90D1B9F1000FE8D073
:10100000019BE718FFB2029B5E1BF6B20D36F6B2EB
:10101000129BADF818301B0C8DF81A3017F0800FAA
:1010200008D116F0800F05D1C7F17F07FFB2C6F1D6
:101030007F06F6B217F0800FCBD116F0800FC8D123
:10104000DFF850B100219BF8000001F021FA0121E6
:10105000384601F01DFA01217F2001F019FA002124
:101060009BF8010001F014FA0121304601F010FA5A
:1010700001217F2001F00CFA00219BF8020001F011
:1010800007FA9DF81A309DF81960C6F3C20040EACD
:10109000C3000121C0B201F0FBF99DF9180000F076
:1010A0001F0040EA46100121C0B201F0F1F990E7BB
:1010B000019BE718FFB2029BA3EB050B5FFA8BFBCA
:1010C0000BF10D0B5FFA8BFB129BADF81C301B0C68
:1010D0008DF81E3017F0800F09D11BF0800F06D15C
:1010E000C7F17F07FFB2CBF17F0B5FFA8BFB17F0E5
:1010F000800F7FF46EAF1BF0800F7FF46AAF254E38
:101100000021307801F0C4F90121384601F0C0F91E
:1011100001217F2001F0BCF90021707801F0B8F9BD
:101120000121584601F0B4F901217F2001F0B0F906
:101130000021B07801F0ACF99DF81E309DF81D60DB
:10114000C6F3C20040EAC3000121C0B201F0A0F919
:101150009DF91C0000F01F0040EA46100121C0B2BA
:1011600001F096F935E70135EDB20D2D01D80024D7
:1011700031E7B8F1200F08D0054B9C2202FB0A3A58
:101180009AF89B0009B0BDE8F08F0520FAE700BF90
:1011900070540008BC0000202DE9F04186B00546DF
:1011A0008846164605939DF834700C4602E00D3EC5
:1011B000F6B24446287898B101350023029301978E
:1011C0000C9BADF800301B0C8DF80230059B3246AD
:1011D0002146FFF75DFE03197E2BE8DCDCB2E9E770
:1011E000FFF728FB06B0BDE8F081000070B5A4B0A1
:1011F0000C4600230CE050F8232041F204018A42FF
:1012000028BF0A4624A901EB830141F8202C0133B1
:10121000032BF0DD026841F204039A1A002AB8BFDA
:1012200052421C92C2689B1A002BB8BF5B421F93AC
:10123000DDED1C7AF8EE677ACDED1A7ADDED1A7ADB
:10124000DFED865A87EEA57A9FED856A27EE067A4E
:10125000DFED846A37EE667A8DED1A7ADDED1D7A60
:10126000F8EE677ACDED1B7ADDED1B7A87EEA57A75
:1012700027EE067A37EE667A8DED1B7A9DED1A7AA7
:10128000DFED797A27EE277A9DED1B5A25EE275A56
:1012900037EE457A8DED207A9DED1A7A27EE277A82
:1012A0009DED1B5A65EE277A37EE277A8DED217A70
:1012B000DDED1E7AF8EE677A87EEA57A27EE067ADC
:1012C00037EE667A8DED227A9DED1F7AB8EE477A79
:1012D000C7EE257A67EE867A77EEE67ACDED237A49
:1012E00000230DE09FED617AF4EEC77AF1EE10FA7B
:1012F00019D524AA02EB830202ED047A13E001332C
:10130000042B2AD024AA02EB830252ED047A9FED2B
:10131000557AF4EEC77AF1EE10FAE3DD24AA02EB77
:10132000830202ED047A24AA02EB830252ED047ACE
:10133000B1EE047AF4EEC77AF1EE10FADFD8B9EE26
:10134000047AF4EEC77AF1EE10FAD8DB002124AA71
:1013500002EB830242F8101CD1E700230EE024AA1E
:1013600002EB830252ED047A77EEA77AFDEEE77A7C
:101370003F4A17EE901A42F823100133042BEED1A6
:101380003B4B1A6852421A60002305E024A9194415
:10139000002001F8900C0133312BF7DD354D294643
:1013A0000DA803F045FC6846FFF79CF8324B1B88FC
:1013B0002DF800300DA9684603F05AFC2C4E7268D7
:1013C00029460DA803F034FC6846FFF78BF82B4B39
:1013D0001B882DF800300DA9684603F049FCB2685F
:1013E00029460DA803F024FC6846FFF77BF8244B40
:1013F0001B882DF800300DA9684603F039FCF2680F
:1014000029460DA803F014FC6846FFF76BF81D4B46
:101410001B882DF800300DA9684603F029FC6846AA
:10142000FFF7E2F91848FFF7DFF9002300E0013386
:10143000312B0BDC24AA1A4412F8902C2D2AF6D159
:10144000462124AA1A4402F8901CF0E70CB924B0F3
:1014500070BD6946012000F0E1F8F8E70020804502
:101460000000C84200004842F4FD343F000048C27A
:10147000740300200C8000080C8100081080000814
:101480001480000818800008987F0008032828BFEF
:101490000320012A08D0022A0DD00D4B53F820302A
:1014A0008B420FD001207047094B53F820308B42FC
:1014B0000ADB00207047064B53F820308B4205DCD6
:1014C0000020704700207047104670470120704789
:1014D0007403002098B90B4B13F82100002243F845
:1014E00021207047074A002042F8230001330A2BCD
:1014F000F8D1044B012243F821200020704700233B
:10150000F5E700BFF002002030B5C5B0F022214958
:1015100008A803F079FB2048FFF774F94FF4FA703C
:1015200001F08EFA01242BE0C4EB04114A0044A917
:101530000A441A4412F8F02C0DF803200133DBB2F0
:101540001E2BF1D96846FFF75DF9002507E0134926
:101550000020FFF795F8012001F072FA01354EF6F0
:101560005F239D4206D801210020FFF7B3FF08B991
:10157000062CECD14EF65F239D4208D80134E4B22C
:10158000052C01D80023DBE7012045B030BD002049
:10159000FBE700BF7C7E00081C8000082880000854
:1015A00008B501224FF40041034802F064F80348F3
:1015B000FFF71AF9FEE700BF000802402C80000880
:1015C000144B1B78BBB9F9B9134B184490F8280099
:1015D0007047114C1C44002584F828500133132B0C
:1015E000F7DD0C4B00241C7041B90B4B184490F8EC
:1015F000280030BC704730B40023F0E7064B184495
:1016000080F828200020F4E7034B184480F82820B5
:1016100000207047B8000020F002002070B50028BC
:1016200053D10546524B93F83C30002B4CD05148D7
:10163000FFF7E8F80A2001F003FA4F48FFF7E2F855
:10164000002463E04A4A1A44002182F83C10013326
:10165000312BF7DD494C2046FEF744FF05462218A2
:10166000474B03CB605151601B88138131462046A4
:1016700003F0FEFA002211461046FFF7A1FF38B32F
:101680002046FEF72FFF22183E4B19889B782152E7
:101690009370002211460120FFF792FF18B3374CD8
:1016A0002046FEF71FFF2218374B19889B782152DE
:1016B000937000BF314C2046FEF714FF2218334BC5
:1016C00019889B782152937070BD0E460023BFE7A6
:1016D0002A4C2046FEF706FF22182D4B19889B78CE
:1016E00021529370D5E7254C2046FEF7FBFE2218C9
:1016F000284B19889B7821529370DAE70134012036
:1017000001F09EF924490020FEF7BAFFB4F5FA7FF4
:1017100005DA00210846FFF7DDFE0028EED0B4F51B
:10172000FA7F15DA1548FFF76DF89DB904210020FE
:10173000FFF7D0FE70B9012001F082F916490020B0
:10174000FEF79EFF03210020FFF7C4FE0546ECE7ED
:10175000FFF726FF4DB11148FFF746F80B48FFF79A
:1017600043F80F48FFF74EF8AEE7FFF719FF00BF49
:10177000F002002054800008708000082C03002034
:1017800038800008448000084C800008987F0008DA
:101790004880000850800008288000087C800008ED
:1017A0008480000882B000230193064B1A6B42F438
:1017B00080021A631B6B03F480030193019B02B048
:1017C000704700BF0038024008B5024610210248A9
:1017D00001F051FF08BD00BF0008024008B50246F5
:1017E0002021024801F047FF08BD00BF0008024069
:1017F00008B502460121024801F03DFF08BD00BFC7
:101800000004024008B501F01BF908BDF0B589B02D
:1018100000240394049405940694079400943B4B8D
:101820001A6B42F004021A631A6B02F0040200926F
:10183000009A01941A6B42F001021A631A6B02F0CB
:1018400001020192019A02941A6B42F002021A6399
:101850001B6B03F002030293029B2D4E22464EF2B5
:10186000C011304601F007FF01223021304601F05F
:1018700002FF284F01221146384601F0FCFE2246A5
:101880000221384601F0F7FE4EF2C0130393012502
:1018900004950594069403A9304601F001FE0C233B
:1018A00003931D4B0493059403A9304601F0F8FD02
:1018B0003023039304950594069503A9304601F05F
:1018C000EFFD039504950594069503A9384601F0AC
:1018D000E7FD02230393112304930594069403A9BF
:1018E000384601F0DDFD22460421082001F068FBA6
:1018F000082001F099FB22460421092001F060FB39
:10190000092001F091FB09B0F0BD00BF0038024092
:1019100000080240000402400000211008B5002227
:101920000121252001F04CFB252001F07DFB002248
:101930000421382001F044FB382001F075FB00221F
:101940000221272001F03CFB272001F06DFB002243
:101950000321362001F034FB362001F065FB08BD81
:10196000F0B585B0002500950195029503951A4CB8
:101970001A4B23604FF480336360A5600126266113
:10198000267684F82050E562154BA362E5600427B3
:10199000E76184F830606661204601F0FFF8009549
:1019A0000196032502956946204601F02FFA00961C
:1019B000022601966946204601F028FA0096019514
:1019C0006946204601F022FA0095019769462046B3
:1019D00001F01CFA05B0F0BD5004002000200140C9
:1019E0000100000F08B50C480C4B03604FF48273E4
:1019F000436000238360C360036143614FF400725E
:101A000082611822C2610362436283620A23C36255
:101A100002F0BCFA08BD00BF8C0500200030014078
:101A200008B50848084B03604FF461434360002346
:101A30008360C36003610C2242618361C36102F071
:101A4000C8FE08BDA80400200010014008B50848E1
:101A5000084B03604FF4E133436000238360C360AD
:101A600003610C2242618361C36102F0B2FE08BDD2
:101A70000C0400200048004008B50948094B0360E9
:101A8000094B436000238360C3604FF480420261CE
:101A900043618361C361036201F002FE08BD00BFC0
:101AA00084030020005C0040A086010030B583B0B4
:101AB0000025009501950B4C0B4B236042F21073EF
:101AC0006360A56041F26803E3608023A361204660
:101AD00002F0A0FC009501956946204602F0B4FC96
:101AE00003B030BD480500200010004008B54FF499
:101AF0007A738AB20146024802F088FA08BD00BF34
:101B00008C05002030B595B03022002108A803F0E4
:101B100086F8002403940494059406940794019491
:101B20001B4B1A6C42F080521A641B6C03F08053FA
:101B30000193019B0294174B1A6842F480421A6089
:101B40001B6803F480430293029B0225089501233E
:101B50000B9310230C930E950F9408231093A82336
:101B6000119312950423139308A801F073FE0F2319
:101B70000393049505944FF4A05306934FF48053B8
:101B80000793052103A802F0AFF815B030BD00BFE0
:101B9000003802400070004000B587B000F024FF1C
:101BA000FFF7B0FFFFF732FEFFF7FCFDFFF7D8FEAF
:101BB000FFF718FFFFF734FFFFF748FFFFF75CFF61
:101BC000FFF774FFFFF7AAFE544B0293544B0193A7
:101BD000544B0393544B0593544B049301225449A3
:101BE000544802F096FE01225349544802F091FEF7
:101BF00004225349534800F0FDFF01224FF40051E5
:101C0000514801F038FD01AA0121084600F07AFC94
:101C100000F082F94D4C01220221204601F02BFDFB
:101C20000A2000F00DFF00220221204601F023FDD2
:101C30000A2000F005FF01220221204601F01BFDD1
:101C40004FF47A7000F0FCFEFFF75EFC48B9012209
:101C50004FF4004100F1804000F5023001F00BFD2F
:101C6000FEE7C82000F0ECFE3948FEF7CBFD64200B
:101C700000F0E6FE00F0E2F803E000213048FFF754
:101C8000B5FA02226FF040010020FFF7FFFB0028A9
:101C9000F3D1012241211046FFF7F8FB0028ECD1D7
:101CA00002226FF05E011046FFF7F0FB0028E4D13E
:101CB0000021084600F008FA03E000212048FFF761
:101CC00095FA002211461046FFF7E0FB0028F4D1F8
:101CD000002211460120FFF7D9FB0028EDD1002298
:101CE00011460220FFF7D2FB0028E6D10022114660
:101CF0000320FFF7CBFB0028DFD1164802F053FA90
:101D000015490020FEF7BCFC01210D48FFF76EFAD3
:101D10004FF4FA7000F094FEF2E700BFC917000814
:101D2000F1170008DD170008ED1A00080518000873
:101D30004C040020A8040020880500200C0400208A
:101D400098040020500400200008024000040240D3
:101D5000A080000848050020BC80000808B50428C1
:101D600002D0082813D008BD0421124801F07CFCE1
:101D700020B9114A137883F0010313700E4B597880
:101D8000187800F0A1F9642000F05AFEEBE7082172
:101D9000084801F069FC20B9074A537883F0010331
:101DA0005370054B5978187800F08EF9642000F0D4
:101DB00047FED8E7000802405E03002038B504461D
:101DC00002680E4B9A4204D022680D4B9A420AD008
:101DD00038BD0C4D012229460B4802F09AFD2846D9
:101DE000FEF72AFCF0E7094C01222146084802F0E0
:101DF00090FD2046FEF7CCFCEAE700BF004800401B
:101E000000100140880500200C0400204C04002034
:101E1000A804002008B504220249034800F0EAFEA5
:101E200008BD00BF980400205004002008B5002120
:101E30000846FFF7F3FB08BD7047000070B582B09D
:101E4000314C637AA07A43EA0023E07A43EA004007
:101E5000FEF7F4FC00260196254635F8122FAB78E4
:101E6000ADF800208DF80230637DA27D43EA0223A5
:101E7000E27D43EA024369221E212448FFF78CF9E0
:101E800001962A88AB78ADF800208DF80230637D8A
:101E9000A27D43EA0223E27D43EA02435B222D2135
:101EA0001B48FFF779F901962288A378ADF8002046
:101EB0008DF80230A37CE27C43EA0223227D43EAD0
:101EC0000243322205211348FFF766F901240194E9
:101ED0002A88AB78ADF800208DF802304B236E22B3
:101EE00019461420FEF7A6FD01942A88AB78ADF8B8
:101EF00000208DF8023027236E2219461420FEF7A9
:101F000099FD02B070BD00BF00000020C080000835
:101F1000CC800008D480000870B582B0614B1B787B
:101F20005BB9614B1B78022B00F08480032B00F01F
:101F30009D80012B6AD002B070BD5C4C00260196DA
:101F4000254635F8122FAB78ADF800208DF8023019
:101F5000637DA27D43EA0223E27D43EA02436E22CF
:101F60000A215348FFF718F901962A88AB78ADF893
:101F700000208DF80230637DA27D43EA0223E27DDA
:101F800043EA02435A220A214A48FFF705F901961B
:101F90002A88AB78ADF800208DF80230637DA27DF1
:101FA00043EA0223E27D43EA02434B220A214248EC
:101FB000FFF7F2F801962A88AB78ADF800208DF88B
:101FC0000230637DA27D43EA0223E27D43EA0243BD
:101FD0003C220A213948FFF7DFF801962A88AB78BE
:101FE000ADF800208DF80230637DA27D43EA022324
:101FF000E27D43EA02432D220A213148FFF7CCF863
:10200000142000F01DFD274B1E708AE70193274B1B
:1020100033F8092F9B78ADF800208DF802300E239D
:102020000A2232215D20FEF771FC1F4A137801332A
:10203000137080E71D4A00230193134633F8031FF2
:102040009B78ADF800108DF80230537D917D43EA06
:102050000123D27D43EA024332225D211948FFF772
:102060009BF8114A13780133137064E70F4A002379
:102070000193134633F8031F9B78ADF800108DF8D9
:102080000230537D917D43EA0123D27D43EA02432E
:10209000322262210B48FFF77FF8034B01221A70AE
:1020A00049E700BFB90000206003002000000020C5
:1020B000E4800008F4800008FC8000080481000827
:1020C00010810008F08000082DE9F04383B0074636
:1020D0000E46CE4B5B78002B40F08680CC4B5B7875
:1020E000BB423ED0002F00F01D8101221146104658
:1020F000FFF766FA4FF00108CDF80480C54D2C4675
:1021000034F8032FA378ADF800208DF802300A23AD
:10211000142243211846FEF7F9FBCDF804802288EB
:10212000A378ADF800208DF8023019235A223C2103
:102130001E20FEF7EBFB002301932288A378ADF865
:1021400000208DF80230AB7CEA7C43EA02232A7D32
:1021500043EA024340222D21AF48FFF71DF8AC4B64
:102160005F70AB4B9B78B3423BD0002E00F01581E3
:10217000012211460020FFF723FA01270197A54D00
:102180002C4634F8032FA378ADF800208DF80230E8
:1021900019235A2214210A20FEF7B8FB019722883E
:1021A000A378ADF800208DF802300A2314221B21F9
:1021B0006420FEF7ABFB002301932288A378ADF8DF
:1021C00000208DF80230AB7CEA7C43EA02232A7DB2
:1021D00043EA0243182219219048FEF7DDFF8C4B99
:1021E0009E7003B0BDE8F0838A4C637DA07D43EA16
:1021F0000023E07D43EA0040FEF720FB4FF000089B
:10220000CDF80480254635F8152FAB78ADF80020C1
:102210008DF80230A37CE27C43EA0223227D43EA6C
:10222000024369221E217E48FEF7B6FFCDF80480E6
:102230002A88AB78ADF800208DF80230A37CE27CD0
:1022400043EA0223227D43EA02435B222D217548A3
:10225000FEF7A2FF4FF00109CDF80490254635F8AE
:10226000182FAB78ADF800208DF802300A23142225
:1022700043211846FEF74AFBCDF804902A88AB7834
:10228000ADF800208DF8023019235A223C211E207F
:10229000FEF73CFBCDF804802A88AB78ADF800202F
:1022A0008DF80230637DA27D43EA0223E27D43EA9A
:1022B000024340222D215848FEF76EFFCDF80490CE
:1022C0002A88AB78ADF800208DF8023019235A2205
:1022D00014210A20FEF71AFBCDF804902A88AB7867
:1022E000ADF800208DF802300A2314221B2164204F
:1022F000FEF70CFBCDF804802A88AB78ADF80020FF
:102300008DF80230637DA27D43EA0223E27D43EA39
:102310000243182219214148FEF73EFF3B4B83F848
:102320000180DBE6002201210846FFF749F94FF062
:102330000108CDF80480374D2C4634F8182FA378C7
:10234000ADF800208DF802300A23142243211846EC
:10235000FEF7DCFACDF804802288A378ADF80020DF
:102360008DF8023019235A223C211E20FEF7CEFAA6
:10237000002301932288A378ADF800208DF8023065
:102380006B7DAA7D43EA0223EA7D43EA02434022B1
:102390002D212148FEF700FFE1E600220121104631
:1023A000FFF70EF9012701971A4D2C4634F8182F24
:1023B000A378ADF800208DF8023019235A22142199
:1023C0000A20FEF7A3FA01972288A378ADF800202F
:1023D0008DF802300A2314221B216420FEF796FA9E
:1023E000002301932288A378ADF800208DF80230F5
:1023F0006B7DAA7D43EA0223EA7D43EA0243182269
:1024000019210648FEF7C8FEE9E600BFB900002022
:1024100060030020000000202481000830810008B3
:10242000C0800008CC80000830B583B002AD05F84C
:10243000010D0A4C23685B680020984723689B685D
:102440000020984723681B69012128469847236884
:102450005B680120984703B030BD00BFE405002051
:1024600070B505460E46094C23685B680020984706
:1024700023689B680120984723681B6931462846DA
:10248000984723685B680120984770BDE4050020E9
:1024900070B582B00E4602AD05F8010D094C2368F7
:1024A0005B680020984723689B68304698472368FC
:1024B0001B6901212846984723685B6801209847DB
:1024C00002B070BDE405002030B583B000238DF864
:1024D00004307F258DF80550094C2078FFF7A4FFC4
:1024E000022101A8FFF7BCFF8DF805506078FFF7C7
:1024F0009BFF022101A8FFF7B3FF03B030BD00BF6F
:10250000BC000020002A61D010B5314C2260136855
:102510000120984723681B68002098472368DB68E0
:102520004FF47A70984723681B6801209847236806
:102530005B68012098472368DB684FF4FA7098477E
:10254000244C0021607BFFF7A3FF0121B120FFF79E
:102550009FFF0021E07BFFF79BFF0121F020FFF7A9
:1025600097FF0021E078FFF793FF01212020FFF77C
:102570008FFF00212079FFF78BFF01210020FFF75B
:1025800087FF00216079FFF783FF01210020FFF71B
:102590007FFF0021A07BFFF77BFF01210F20FFF7CA
:1025A00077FF0D4A937CD07C43EA0023107D43EAF9
:1025B0000040FEF743F9FFF787FF0021207AFFF77D
:1025C00067FF0021E07AFFF763FF10BD704700BF8F
:1025D000E4050020BC0000200000002082B00021A3
:1025E00000910B4B5A6C42F480425A645A6C02F4CC
:1025F00080420092009A01911A6C42F080521A6453
:102600001B6C03F080530193019B02B0704700BF25
:102610000038024030B589B000230393049305933A
:1026200006930793026803F1804303F590339A42BF
:1026300001D009B030BD04460025019503F58C3367
:102640005A6C42F480725A645A6C02F4807201929D
:10265000019A02951A6B42F001021A631B6B03F098
:1026600001030293029B0F2303930323049303A903
:10267000104800F015FF1048104B0360456085605E
:10268000C5604FF4806303614FF4805343614FF49E
:10269000804383614FF48073C3610562456200F03B
:1026A00063FD18B9044BA3639C63C2E7FFF7C4FB47
:1026B000F8E700BF00000240E80400201064024078
:1026C0002DE9F04389B00023039304930593069307
:1026D00007930268234B9A4202D009B0BDE8F08309
:1026E00000250095204C236B43F004032363236BE8
:1026F00003F004030093009B0195236B43F0010357
:102700002363236B03F001030193019B4FF40073D8
:1027100003934FF01209CDF810904FF00108CDF857
:102720001480032706970426079603A90F4800F094
:10273000B7FE4FF480730393CDF81090CDF814805A
:102740000697079603A90A4800F0AAFE0295236C93
:1027500043F400032364236C03F400030293029BFD
:10276000BBE700BF005C00400038024000080240A8
:102770000000024000B589B0002303930493059341
:10278000069307930268154B9A4202D009B05DF890
:1027900004FB0021019103F584335A6C42F480520A
:1027A0005A645A6C02F480520192019A02911A6B97
:1027B00042F001021A631B6B03F001030293029BB8
:1027C000E023039302230493032306930523079333
:1027D00003A9034800F064FED8E700BF00300140C1
:1027E000000002400268094B9A4200D0704782B054
:1027F00000230193064B1A6C42F010021A641B6C02
:1028000003F010030193019B02B0704700100040D9
:102810000038024000B58BB0002305930693079360
:10282000089309930368284A934205D0274A9342A4
:1028300026D00BB05DF804FB00210191244B5A6CAB
:1028400042F010025A645A6C02F010020192019A8E
:1028500002911A6B42F001021A631B6B03F0010331
:102860000293029B4FF4C063059302230693032354
:1028700008930723099305A9164800F011FED8E72D
:1028800000210391124B1A6C42F480221A641A6CD4
:1028900002F480220392039A04911A6B42F002021E
:1028A0001A631B6B03F002030493049B4FF4406311
:1028B000059302230693032308930723099305A98D
:1028C000054800F0EDFDB4E700100140004800406D
:1028D0000038024000000240000402407047FEE75A
:1028E000FEE7FEE7FEE770477047704708B500F067
:1028F00095F808BD08B5042000F0C4FE08BD08B571
:10290000082000F0BFFE08BD08B5024802F08CF8B0
:1029100008BD00BFA804002008B5024802F084F8F2
:1029200008BD00BF0C04002008B5024801F050FCAF
:1029300008BD00BF4805002008B5024800F0C2FCF1
:1029400008BD00BFE804002008B503460B4A126822
:1029500042B10A4A106803446A46934206D8074ABD
:10296000136008BD054A06491160F2E702F022F93A
:102970000C2303604FF0FF30F3E700BF6403002037
:10298000F0050020054BD3F8882042F47002C3F80C
:1029900088204FF000629A60704700BF00ED00E0B1
:1029A00010B504460E4B18784FF47A73B3FBF0F36E
:1029B0000C4A1068B0FBF3F000F044FB68B90F2C30
:1029C00001D901200AE0002221464FF0FF3000F03B
:1029D000F7FA034B5C60002000E0012010BD00BF4F
:1029E000D0000020CC00002008B50B4B1A6842F440
:1029F00000721A601A6842F480621A601A6842F41F
:102A000080721A60032000F0C9FA0020FFF7C8FFA7
:102A1000FFF7E4FD002008BD003C0240034A1168B6
:102A2000034B1B780B441360704700BFE805002080
:102A3000D0000020014B1868704700BFE805002057
:102A400038B50446FFF7F6FF0546B4F1FF3F02D064
:102A5000044B1B781C44FFF7EDFF401BA042FAD348
:102A600038BD00BFD00000204A4B5A6822F44032E3
:102A70005A605A6841680A435A600268536823F4EE
:102A80008073536002685368016943EA012353600D
:102A90000268536823F0407353600268536881688A
:102AA0000B4353600268936823F4006393600268E9
:102AB0009368C1680B439360826A374B9A424BD04C
:102AC0000268936823F07063936002689368816A78
:102AD0000B4393600268936823F04053936002684D
:102AE0009368C16A0B4393600268936823F0020302
:102AF000936002689368017E43EA4103936090F813
:102B00002030002B33D10268536823F400635360F4
:102B10000268D36A23F47003D3620168CB6AC26986
:102B2000013A43EA0253CB620268936823F40073CC
:102B300093600268936890F8301043EA41239360F1
:102B40000268936823F48063936002689368416924
:102B500043EA8123936070470268936823F07063AF
:102B600093600268936823F040539360BCE7026867
:102B7000536843F4006353600268536823F460436E
:102B8000536001684B68426A013A43EA42334B6042
:102B9000BEE700BF002301400100000F38B310B5AD
:102BA0000446036C43B1236C13F0100F0BD00120CB
:102BB000002384F83C3010BDFFF72CFD0023636434
:102BC00084F83C30EFE7236C23F4885323F00203AE
:102BD00043F0020323642046FFF746FF00206064B1
:102BE000236C23F0030343F001032364E0E7012097
:102BF0007047000030B583B00023019390F83C305B
:102C0000012B00F09B80012380F83C300468A3680E
:102C100013F0010F13D1A36843F00103A3604D4BE0
:102C20001C684D4BA3FB0434A40C04EB4404019436
:102C300002E0019C013C0194019C002CF9D1036845
:102C40009C6814F0010F7BD0046C24F4E06424F041
:102C5000010444F4807404645B6813F4806F05D04D
:102C6000036C23F4405343F480530364036C13F464
:102C7000805F38D0436C23F0060343641346044658
:102C8000002280F83C20826B3448D063A26B344829
:102C90001064A26B3348D06422686FF02200106089
:102CA0002568686840F0806068602568A86840F41E
:102CB0008070A86020680A4600F14C01A06B00F00B
:102CC000B9FA294B5B6813F01F0F27D12368274AF5
:102CD000934219D002F58072934207D0244A93425E
:102CE0000BD000202DE000234364C7E702F50072FB
:102CF000526812F01F0F07D0F0E702F58072526899
:102D000002F01F020F2A1ED89A6812F0405F1CD1F1
:102D10009A6842F080429A60002012E02368134AC9
:102D2000934201D000200CE09A6812F0405F0ED16F
:102D30009A6842F080429A60002002E0022000E09F
:102D4000002003B030BD0020FBE70020F9E70020A1
:102D5000F7E700BFCC00002083DE1B43992D00085D
:102D6000772D0008832D000800230140002001403A
:102D700000220140704708B5806BFFF7FBFF08BDDC
:102D8000704708B5806B40230364436C43F0040331
:102D90004364FFF7F5FF08BD08B5836B1A6C12F0AA
:102DA000500F26D11A6C42F400721A641A689168A6
:102DB00011F0405F19D1197EB9B9D16A11F4700FC1
:102DC00003D0916811F4806F0FD1516821F0200178
:102DD00051601A6C22F480721A641A6C12F4805FCB
:102DE00003D11A6C42F001021A641846FFF712F878
:102DF00008BD1A6C12F0100F03D19B6BDB6C984767
:102E0000F6E71846FFF7BCFFF2E7000030B482B0E7
:102E10000023019390F83C30012B00F0B780012390
:102E200080F83C300B68092B3ED90568EA689BB2F4
:102E300003EB43031E3B072404FA03F322EA0303D4
:102E4000EB600568EA688C680B8803EB43031E3B64
:102E500004FA03F31343EB604B68062B3AD805687A
:102E60006A6B03EB8303053B1F2404FA03F322EA96
:102E700003036B6305686A6B4B6803EB8303053BD5
:102E80000C8804FA03F313436B630268404B9A42C5
:102E900050D002683E4B9A4255D0002380F83C3017
:102EA000184602B030BC704705682A699BB203EB34
:102EB0004303072404FA03F322EA03032B610568A2
:102EC0002A698C680B8803EB430304FA03F313436A
:102ED0002B61C1E70C2B16D805682A6B03EB830323
:102EE000233B1F2404FA03F322EA03032B63056840
:102EF0002A6B4B6803EB8303233B0C8804FA03F330
:102F000013432B63C1E70568EA6A03EB8303413B84
:102F10001F2404FA03F322EA0303EB620568EA6A5A
:102F20004B6803EB8303413B0C8804FA03F3134320
:102F3000EB62AAE70B68122BABD1164A536843F435
:102F400080035360A5E70B68103B012BA5D8114AFD
:102F5000536843F4000353600B68102B9DD10E4B54
:102F60001B6802F1467202F52E3202F28332A2FB96
:102F700003239B0C03EB83035A00019202E0019BA5
:102F8000013B0193019B002BF9D186E7022088E7E2
:102F90000020014000230140CC000020074AD368F4
:102FA00023F4E0631B041B0C000200F4E0601843F0
:102FB00040F0BF6040F40030D060704700ED00E0AA
:102FC00030B4174BDB68C3F30223C3F10704042CAE
:102FD00028BF04241D1D062D18D9033B4FF0FF35D3
:102FE00005FA04F421EA0401994005FA03F322EA00
:102FF0000303194300280BDB0901C9B200F160404B
:1030000000F5614080F8001330BC70470023E5E70D
:1030100000F00F000901C9B2024B1954F4E700BFD8
:1030200000ED00E014ED00E0002807DB00F01F02D7
:10303000400901239340024A42F82030704700BF04
:1030400000E100E00138B0F1807F0AD2064B586001
:10305000064AF02182F823100020986007221A60A7
:1030600070470120704700BF10E000E000ED00E075
:1030700030B405682C6824F480242C6004686360F4
:103080008368402B05D0036899600368DA6030BC20
:10309000704703689A600368D960F8E70268D3B2A2
:1030A000103B0B49A1FB03131B090A49C95CC1650D
:1030B000032B06D822F47F7222F003028265806D12
:1030C000704722F47F7222F0030204328265F6E731
:1030D000ABAAAAAA847F0008836A826992B9012BED
:1030E0000AD01BB1022B01D000207047C36A13F035
:1030F000807F2CD100207047C36AB3F1C07F28D0F5
:1031000000207047B2F5005F05D0022B29D9032BB0
:1031100015D000207047032B03D8DFE803F01C0410
:103120001C0A00207047C36A13F0807F15D100206D
:103130007047C36AB3F1C07F11D000207047C36AE3
:1031400013F0807F01D001207047002070470120DC
:10315000704701207047012070470120704701200F
:10316000704701207047000070B50446FFF762FC0D
:10317000002C5BD00546002384F83430022384F809
:1031800035302268136823F00103136023681A683E
:1031900012F0010F0AD0FFF74DFC401B0528F5D9AE
:1031A00020236365032084F8350070BD1A68204829
:1031B00010406168A2680A43E1680A4321690A4332
:1031C00061690A43A1690A43E1690A43216A0A4322
:1031D0000243616A04291ED01A602668756925F0C9
:1031E0000705636A1D43042B07D1A36A1D43E36AE5
:1031F0001BB12046FFF770FF90B975612046FFF7BD
:103200004DFFE26D3F239340836000206065012302
:1032100084F83530C9E7E16A206B01430A43DBE7F4
:1032200040236365012084F83500BEE70120BCE738
:103230003F8010F038B5856D90F83440012C2CD0CB
:10324000012480F8344090F83540E4B2012C04D0D9
:10325000002380F83430022038BD0446022084F870
:103260003500002060652046FFF702FFE26D3F2336
:103270009340AB602268136843F016031360236C1D
:1032800023B12268136843F00803136022681368AF
:1032900043F0010313600020DEE70220DCE790F832
:1032A0003530DBB2022B03D0802343650120704709
:1032B000052380F835300268136823F0010313609A
:1032C00000207047F0B583B0044600230193724B91
:1032D0001D68724BA3FB0535AD0A876D3E68C26D54
:1032E00008239340334210D003681A6812F0040F89
:1032F0000BD01A6822F004021A60C26D08239340B2
:10330000BB60436D43F001034365E26D01239340CD
:10331000334209D02268526912F0800F04D0BB609A
:10332000636D43F002036365E26D0423934033420F
:1033300009D02268126812F0020F04D0BB60636DDE
:1033400043F004036365E26D10239340334224D0BD
:103350002268126812F0080F1FD0BB6023681A6839
:1033600012F4802F0DD01B6813F4002F04D1236CAE
:103370009BB12046984710E0A36C73B12046984754
:103380000BE01A6812F4807F03D11A6822F0080259
:103390001A60236C0BB120469847E26D20239340BE
:1033A000334255D02268126812F0100F50D0BB6023
:1033B00094F83530DBB2052B0ED023681A6812F46E
:1033C000802F33D01B6813F4002F2AD1636C002B9D
:1033D0003ED0204698473BE02268136823F016034E
:1033E00013602268536923F080035361236CA3B1F7
:1033F0002268136823F008031360E26D3F239340B3
:10340000BB60002384F83430012384F83530236D09
:10341000002B3FD0204698473CE0A36C002BE7D11F
:10342000EBE7E36BA3B12046984711E01A6812F46A
:10343000807F09D11A6822F010021A60002384F8F4
:103440003430012384F83530E36B0BB120469847C4
:10345000636DFBB1636D13F0010F17D0052384F882
:1034600035302268136823F001031360019B013398
:103470000193AB4204D823681B6813F0010FF5D108
:10348000002384F83430012384F83530E36C0BB129
:103490002046984703B0F0BDCC000020B5814E1BFC
:1034A00000230F2B00F2D780F0B583B039E007225C
:1034B00000E00022AA403A430234674D45F8242038
:1034C000664A1468F24302EA04054F6817F4803F25
:1034D00001D046EA0405614C2560646802EA0405EF
:1034E0004F6817F4003F01D046EA04055B4C656065
:1034F000A46802EA04054F6817F4801F01D046EA69
:103500000405564CA560E46822404D6815F4001F80
:1035100001D046EA0402514CE26001330F2B00F265
:10352000988001229A400C6804EA0206B242F4D163
:103530004C68651E012D03D9112C01D0122C12D11B
:1035400085685F000324BC4025EA0405CC68BC40C4
:103550002C438460456825EA02054C68C4F30012D8
:103560009A402A434260C4685F000322BA40D243B3
:1035700014408D68BD402543C5604C68022C01D0C5
:10358000122C13D1DD08083550F825E003F00704AC
:103590004FEA840C0F2404FA0CF42EEA040E0C6992
:1035A00004FA0CF444EA0E0440F825400468224072
:1035B0004C6804F00304BC40224302604A6812F0E5
:1035C000805FAAD000220192254A546C44F48044C2
:1035D0005464526C02F480420192019A9C08A51C2A
:1035E0001D4A52F8257003F0030295000F22AA40ED
:1035F00027EA02071B4A90423FF45BAF02F5806264
:1036000090421AD002F58062904218D002F5806292
:10361000904216D002F58062904214D002F580628A
:10362000904212D002F58062904210D002F5806282
:1036300090423FF43CAF08223CE701223AE70222E5
:1036400038E7032236E7042234E7052232E7062270
:1036500030E703B0F0BD704700380140003C014046
:1036600000380240000002400369194201D10020E5
:1036700070470120704712B9090481617047816168
:103680007047000008B5054B5B69034200D108BDD7
:10369000024B5861FEF762FBF9E700BF003C0140B6
:1036A000002800F0C880F8B5044690F83D30002BA3
:1036B00075D0242384F83D302268136823F0010379
:1036C00013602268136843F4004313602268136890
:1036D00023F40043136000F0BDFB6268584B9A422C
:1036E00062D8584B98428CBF00230123002B40F036
:1036F000A480554BA3FB00239B0C21684A6822F051
:103700003F021A434A6025682A6A22F03F0266682F
:103710004B498E424ED8013313432B622568E96929
:1037200021F44F4121F0FF016368454A93424BD891
:1037300001385B00B0FBF3F30133C3F30B03042B3D
:1037400038BF04230B43EB6121680B6823F0C003EF
:10375000E269206A024313430B6021688B6823F4FB
:10376000034323F0FF032269E068024313438B60A5
:103770002168CB6823F0FF036269A0690243134309
:10378000CB602268136843F00103136000202064BB
:10379000202384F83D30206384F83E00F8BD80F893
:1037A0003C30FEF78DFF84E7284B98428CBF002306
:1037B00001239BE74FF4967101FB03F32449A1FB1E
:1037C00003139B090133A7E7A268BAB9461E03EBAE
:1037D0004307B6FBF7F60136C6F30B06B6FA86F6D4
:1037E000760936BBC2B9013803EB4303B0FBF3F3F0
:1037F0000133C3F30B0242F40043A3E7461E03EB7D
:10380000830707EB8707B6FBF7F60136C6F30B060F
:10381000B6FA86F67609E4E7013803EB830303EB97
:103820008303B0FBF3F20132C2F30B0242F44043D4
:1038300088E7012386E7012070470120AEE700BF3B
:10384000A08601007F841E0083DE1B43FF083D002D
:10385000D34D6210002800F0E48170B582B00446B8
:10386000036813F0010F3BD0A74B9B6803F00C03D8
:10387000042B2CD0A44B9B6803F00C03082B21D005
:103880006368B3F5803F4FD0B3F5A02F52D09E4B65
:103890001A6822F480321A601A6822F480221A60B0
:1038A0006368002B50D0FFF7C5F80546964B1B68A0
:1038B00013F4003F14D1FFF7BDF8401B6428F5D97D
:1038C0000320B3E1904B5B6813F4800FD8D08E4B8C
:1038D0001B6813F4003F03D06368002B00F0A38142
:1038E000236813F0020F55D0874B9B6813F00C0F21
:1038F0003ED0854B9B6803F00C03082B33D0E36864
:10390000002B68D0814B01221A60FFF793F805461F
:103910007D4B1B6813F0020F54D1FFF78BF8401B4F
:103920000228F5D9032081E1774A136843F48033F4
:103930001360B5E7744B1A6842F480221A601A6863
:1039400042F480321A60ABE7FFF774F805466E4B1D
:103950001B6813F4003FC3D0FFF76CF8401B6428CA
:10396000F5D9032062E1684B5B6813F4800FC6D180
:10397000654B1B6813F0020F04D0E368012B01D0E4
:10398000012053E1604A136823F0F803216943EAF8
:10399000C1031360236813F0080F40D0636963B359
:1039A0005B4B01221A60FFF745F80546564B5B6FEB
:1039B00013F0020F33D1FFF73DF8401B0228F5D971
:1039C000032033E1504A136823F0F803216943EAE6
:1039D000C1031360DEE74D4B00221A60FFF72AF89F
:1039E0000546494B1B6813F0020FD3D0FFF722F8AE
:1039F000401B0228F5D9032018E1454B00221A602C
:103A0000FFF718F80546404B5B6F13F0020F06D026
:103A1000FFF710F8401B0228F5D9032006E12368C0
:103A200013F0040F79D0384B1B6C13F0805F33D147
:103A300000230193344B1A6C42F080521A641B6CC1
:103A400003F080530193019B0125324B1B6813F453
:103A5000807F23D0A368012B34D0052B38D02A4B8C
:103A60001A6F22F001021A671A6F22F004021A6715
:103A7000A368002B36D0FEF7DDFF0646224B1B6FF6
:103A800013F0020F48D1FEF7D5FF801B41F28833B7
:103A90009842F3D90320C9E00025D6E71D4A1368F0
:103AA00043F480731360FEF7C5FF0646194B1B688D
:103AB00013F4807FCED1FEF7BDFF801B0228F5D91D
:103AC0000320B3E0104A136F43F001031367CFE7FD
:103AD0000D4B1A6F42F004021A671A6F42F001028E
:103AE0001A67C5E7FEF7A6FF0646074B1B6F13F0E4
:103AF000020F11D0FEF79EFF801B41F288339842DF
:103B0000F3D9032092E000BF003802400000474292
:103B1000800E474200700040EDB9A369002B00F011
:103B20008480454A926802F00C02082A51D0022B88
:103B300017D0424B00221A60FEF77CFF04463E4B32
:103B40001B6813F0007F42D0FEF774FF001B0228B1
:103B5000F5D903206AE0384A136C23F080531364CC
:103B6000DBE7364B00221A60FEF764FF0546324B56
:103B70001B6813F0007F06D0FEF75CFF401B022895
:103B8000F5D9032052E0E369226A1343626A43EAEB
:103B90008213A26A5208013A43EA0243E26A43EA04
:103BA0000263254A5360254B01221A60FEF742FF4B
:103BB0000446214B1B6813F0007F06D1FEF73AFF45
:103BC000001B0228F5D9032030E000202EE0002061
:103BD0002CE0012B2CD0184B5B6803F48001E269C8
:103BE000914201D0012021E003F03F02216A8A4284
:103BF00001D001201AE0616A47F6C0721A408A4279
:103C000001D0012012E003F44032A16A8A4201D0BF
:103C100001200BE003F07063E26A93420AD00120B6
:103C200004E001207047012000E0002002B070BDD8
:103C30000120FBE70020F9E700380240600047421E
:103C4000264B9B6803F00C03042B44D0082B01D0B7
:103C5000234870472DE9F04B204B5A6802F03F0291
:103C60005B6813F4800F13D01C4B5968C1F38811A3
:103C700000231C48A1FB0001FCF7AAFA174B5B6864
:103C8000C3F3014301335B00B0FBF3F0BDE8F08BFD
:103C9000124B5B68C3F388131E4600275C010025A6
:103CA000E41A65EB0705A90141EA9461A001001B34
:103CB00061EB0501CB0043EA5073C400A01943EB4C
:103CC00007018B0243EA90538402204619460023E1
:103CD000FCF77EFAD2E70348704700BF0038024085
:103CE0000024F40040787D01002800F09E8070B52B
:103CF0000446504B1B6803F00F038B4209D2CBB232
:103D00004C4A1370136803F00F038B4201D001205B
:103D100070BD236813F0020F17D013F0040F04D006
:103D2000454A936843F4E0539360236813F0080F07
:103D300004D0414A936843F4604393603E4A9368D9
:103D400023F0F003A068034393600D46236813F04B
:103D5000010F32D06368012B21D09A1E012A25D988
:103D6000354A126812F0020F61D033498A6822F096
:103D7000030213438B60FEF75DFE06462E4B9B68E5
:103D800003F00C036268B3EB820F16D0FEF752FE0D
:103D9000801B41F288339842F0D90320B8E7264AC5
:103DA000126812F4003FE0D10120B1E7224A126804
:103DB00012F0007FD9D10120AAE71E4B1B6803F047
:103DC0000F03AB4209D9EAB21A4B1A701B6803F011
:103DD0000F03AB4201D001209AE7236813F0040FD0
:103DE00006D0154A936823F4E053E1680B439360CF
:103DF000236813F0080F07D00F4A936823F4604339
:103E0000216943EAC1039360FFF71AFF0A4B9B68DD
:103E1000C3F30313094AD35CD840094B1860094B1C
:103E20001868FEF7BDFD002072E7012070470120F1
:103E30006EE700BF003C0240003802406C7F000883
:103E4000CC000020D4000020014B1868704700BF50
:103E5000CC00002008B5FFF7F7FF044B9B68C3F3C5
:103E60008223034AD35CD84008BD00BF003802401B
:103E70007C7F000808B5FFF7E7FF044B9B68C3F39E
:103E80004233034AD35CD84008BD00BF003802402B
:103E90007C7F0008F8B505460F4616461C462B6881
:103EA0009B6837EA03030CBF01230023B34237D0DA
:103EB000B4F1FF3FF3D0FEF7BDFD069BC01AA04250
:103EC00001D2002CEBD12A68536823F0E003536041
:103ED0006B68B3F5827F0BD0AB6AB3F5005F14D08B
:103EE000012385F85130002385F85030032018E075
:103EF000AB68B3F5004F02D0B3F5806FECD12A6800
:103F0000136823F040031360E6E72A68136823F47C
:103F1000005313602A68136843F400531360DFE70B
:103F20000020F8BD30B585B0164C2468164DA5FBB1
:103F30000434640D4FF47A7505FB04F4039444686B
:103F4000B4F5827F0BD0039BC3B1039B013B03936A
:103F500003689B6813F0800FF5D100230FE00B4638
:103F60000446009200228021FFF794FF034630B1FF
:103F7000636D43F020036365032300E000231846CC
:103F800005B030BDCC000020819F5E1600283BD0DC
:103F900010B504460023836290F85130002B2ED0D8
:103FA000022384F851302268136823F04003136021
:103FB0006368A2681343E26813432269134362698A
:103FC0001343A26902F400721343E2691343226AA5
:103FD0001343A16A22680B431360638B03F004034D
:103FE000616A22680B4353602268D36923F400633B
:103FF000D36100206065012384F8513010BD80F842
:104000005030FEF7B7FBCBE7012070472DE9F041B8
:1040100082B090F85040012C00F0C3801D46174636
:1040200088460446012380F85030FEF703FD06461B
:1040300094F85130DBB2012B09D00220012384F81F
:104040005130002384F8503002B0BDE8F081B8F15F
:10405000000F00F09880002F00F09780032384F871
:10406000513000236365C4F83080A786E786A363D8
:10407000A387E38763642364A368B3F5004F1CD070
:1040800023681A6812F0400F03D11A6842F0400208
:104090001A60E368B3F5006F15D063680BB1012FA8
:1040A00049D1226B236812781A73236B013323637F
:1040B000E38E013B9BB2E3863DE02268136843F444
:1040C00080431360DCE763680BB1012F15D1226BCD
:1040D00023681288DA60236B02332363E38E013B8B
:1040E0009BB2E38609E0FEF7A5FC801BA84202D341
:1040F000B5F1FF3F4BD1002D4BD0E38E9BB2002B8F
:104100002CD023689A6812F0020FECD0226B128830
:10411000DA60236B02332363E38E013B9BB2E386B9
:10412000EBE7FEF787FC801BA84202D3B5F1FF3F07
:1041300031D1002D31D0E38E9BB27BB123689A68D8
:1041400012F0020FEDD0226B12781A73236B013339
:104150002363E38E013B9BB2E386ECE732462946BC
:104160002046FFF7DFFE08B120236365A36833B95B
:1041700001932368DA6801929B680193019B636D48
:104180006BB900205AE7012058E7012056E70320C9
:1041900054E7032052E7032050E703204EE70120B5
:1041A0004CE7022050E70268D36843F00103D36074
:1041B0000268936803F00703062B03D0136843F0EB
:1041C00001031360002070477047704770477047C5
:1041D00010B5044603681A6912F0020F11D0DA68AC
:1041E00012F0020F0DD06FF002021A610123037763
:1041F00003689B6913F0030F70D0FFF7E6FF0023FD
:10420000237723681A6912F0040F12D0DA6812F0CB
:10421000040F0ED06FF004021A6102232377236883
:104220009B6913F4407F5FD02046FFF7CEFF002349
:10423000237723681A6912F0080F12D0DA6812F097
:10424000080F0ED06FF008021A6104232377236849
:10425000DB6913F0030F4ED02046FFF7B6FF0023B3
:10426000237723681A6912F0100F12D0DA6812F05F
:10427000100F0ED06FF010021A6108232377236805
:10428000DB6913F4407F3DD02046FFF79EFF0023FB
:10429000237723681A6912F0010F03D0DA6812F04D
:1042A000010F36D123681A6912F0800F03D0DA6843
:1042B00012F0800F34D123681A6912F0400F03D036
:1042C000DA6812F0400F32D123681A6912F0200F19
:1042D00003D0DA6812F0200F30D110BDFFF774FF61
:1042E0002046FFF773FF8AE72046FFF76DFF204661
:1042F000FFF76CFF9BE72046FFF766FF2046FFF7BE
:1043000065FFACE72046FFF75FFF2046FFF75EFF43
:10431000BDE76FF001021A612046FDF787FDC1E796
:104320006FF080021A61204600F0D3F8C3E76FF007
:1043300040021A612046FFF74AFFC5E76FF02002EE
:104340001A61204600F0C4F8C7E700000368304A4D
:10435000904212D0B0F1804F0FD0A2F57C42904233
:104360000BD002F58062904207D002F58062904245
:1043700003D002F57842904203D123F070034A68DB
:104380001343234A90422AD0B0F1804F27D0A2F5A0
:104390007C42904223D002F5806290421FD002F509
:1043A000806290421BD002F57842904217D002F50D
:1043B0007052904213D002F5806290420FD002F505
:1043C000806290420BD0A2F59832904207D002F55D
:1043D0008062904203D002F58062904203D123F4C0
:1043E0004073CA68134323F080034A691343036090
:1043F0008B68C3620B688362054B984203D003F558
:104400008063984201D10B690363012343617047C4
:1044100000000140A8B110B5044690F83D305BB1F2
:10442000022384F83D30211D2068FFF78FFF012310
:1044300084F83D30002010BD80F83C30FEF7D2F902
:10444000EEE701207047000090F83C30012B3BD094
:1044500030B4012380F83C30022380F83D300368FB
:104460005C689D6824F070040A6822435A600368FF
:10447000164A93421AD0B3F1804F17D0A2F57C426E
:10448000934213D002F5806293420FD002F580620E
:1044900093420BD002F57842934207D002F5705256
:1044A000934203D0A2F59432934204D125F08005C3
:1044B0004A6815439D60012380F83D30002380F851
:1044C0003C30184630BC7047022070470000014065
:1044D000704770470268D36823F49073D360026812
:1044E000536923F001035361202380F83A30704769
:1044F00090F83930DBB2212B2AD18368B3F5805F85
:1045000016D0036A5A1C02621A7803685A60C38C78
:10451000013B9BB2C384EBB90268D36823F08003EC
:10452000D3600268D36843F04003D3600020704733
:10453000036A1B880268C3F30803536003691BB94D
:10454000036A02330362E2E7036A01330362DEE7D0
:1045500002207047002070472DE9F04B04460268A6
:10456000136923F44053C1680B43136183680269E4
:10457000134342691343C2691A430168CB6823F4A9
:10458000164323F00C031343CB600268536923F4F2
:10459000407381690B435361C369B3F5004F3BD04E
:1045A0000368714A934200F0AB8002F58062934247
:1045B00000F0A680FFF74EFC4FF00009061849EB0B
:1045C000090716EB000B47EB090C4FEACC0343EA53
:1045D0005B734FEACB0293469C4663689A009B0F3D
:1045E00010EB0B0049EB0C01FBF7F2FD5F4DA5FB57
:1045F00000325109642202FB110213013233A5FB80
:1046000003235B0903F0F00202EB011203F00F0336
:10461000216813448B60A4E00368534A934239D065
:1046200002F58062934235D0FFF714FC83464FF0C9
:10463000000C06184CEB0C0716EB000847EB0C09B6
:104640004FEAC90343EA58734FEAC80290469946B5
:1046500062680021921841EB01031BEB08004CEB50
:104660000901FBF7B5FD414DA5FB0032510964225C
:1046700002FB1102D3003233A5FB03235B095A006E
:1046800002F4F87202EB011203F0070321681344ED
:104690008B6066E0FFF7EEFB80464FF000090618DE
:1046A00049EB090716EB000B47EB090C4FEACC036B
:1046B00043EA5B734FEACB0293469C466268002153
:1046C000921841EB010318EB0B0049EB0C01FBF7CF
:1046D0007FFD264DA5FB00325109642202FB110229
:1046E000D3003233A5FB03235B095A0002F4F872AE
:1046F00002EB011203F00703216813448B6030E0E2
:10470000FFF7B8FB4FF00009061849EB090716EB55
:10471000000B47EB090C4FEACC0343EA5B734FEA0B
:10472000CB0293469C4663689A009B0F10EB0B00EC
:1047300049EB0C01FBF74CFD0C4DA5FB0032510978
:10474000642202FB110213013233A5FB03235B0930
:1047500003F0F00202EB011203F00F03216813448F
:104760008B60BDE8F08B00BF001001401F85EB514E
:104770002DE9F04105460F4616469846069C2B68E3
:104780001B6837EA03030CBF01230023B3421DD18A
:10479000B4F1FF3FF3D02CB1FEF74CF9A0EB0800C9
:1047A000A042ECD92A68D36823F4D073D3602A6876
:1047B000536923F001035361202385F8393085F8CC
:1047C0003A30002385F83830032000E00020BDE8AF
:1047D000F08158B310B5044690F839300BB3242358
:1047E00084F839302268D36823F40053D36020461C
:1047F000FFF7B2FE2268136923F490431361226825
:10480000536923F02A0353612268D36843F40053A9
:10481000D3600020E063202384F8393084F83A30F4
:1048200010BD80F83830FDF7F5FFD8E7012070475C
:104830002DE9F04383B01E4690F83930DBB2202BCF
:1048400056D104460D469046002956D0002A56D02F
:1048500090F83830012B54D0012380F838304FF0D5
:104860000009C0F83C90212380F83930FEF7E2F8C7
:104870000746A4F82480A4F8268084F8389010E035
:1048800000963B46002280212046FFF771FF00285A
:1048900039D12B882268C3F3080353602369C3B955
:1048A0000235E38C9BB2B3B1E38C013B9BB2E38452
:1048B000A368B3F5805FE3D000963B4600228021D9
:1048C0002046FFF755FF00BB2A7823685A60013560
:1048D000E7E70135E5E700963B4600224021204608
:1048E000FFF746FF034690B9202284F8392000E004
:1048F0000223184603B0BDE8F0830123F9E7012342
:10490000F7E70223F5E70323F3E70323F1E70323A4
:10491000EFE790F83A30DBB2202B20D109B312B385
:1049200090F83830012B20D081628285C285002327
:10493000C363222280F83A2080F838300168CA68C0
:1049400042F48072CA6001684A6942F001024A6119
:104950000168CA6842F02002CA6018467047022007
:104960007047012070470120704702207047704750
:1049700008B50168CB6823F04003CB60202380F8A2
:104980003930FFF7F4FF002008BD08B590F83A3041
:10499000DBB2222B45D18368B3F5805F0ED003696B
:1049A00003BB03685A68836A591C81621A70C38DFD
:1049B000013B9BB2C385F3B1002033E0826A0369F7
:1049C00043B903685B68C3F308031380836A023347
:1049D0008362ECE703685B68DBB21380836A0133B0
:1049E0008362E4E703685B68826A511C816203F0BA
:1049F0007F031370DBE70268D36823F02003D360E2
:104A00000268D36823F48073D3600268536923F08B
:104A100001035361202380F83A30FDF7CFF90020DD
:104A200000E0022008BD704710B504460268136814
:104A3000D168526913F00F0005D113F0200F02D096
:104A400011F0200F56D100286AD012F0010202D1D5
:104A500011F4907F64D013F0010F06D011F4807F21
:104A600003D0E06B40F00100E06313F0040F04D0CA
:104A70001AB1E06B40F00200E06313F0020F04D0C3
:104A80001AB1E06B40F00400E06313F0080F07D0A8
:104A900011F0200F00D11AB1E26B42F00802E2637C
:104AA000E26B002A48D013F0200F02D011F0200F43
:104AB00024D123685B6903F04003E26B12F0080F16
:104AC00000D13BB32046FFF705FD23685A6912F079
:104AD000400F1BD05A6922F040025A61636B8BB1C0
:104AE0001A4A1A65606BFEF7DAFB28B3606B036D38
:104AF000984721E02046FFF748FF1DE02046FFF7DA
:104B000044FFD6E72046FFF78EFF15E02046FFF76B
:104B10008AFF11E02046FFF786FF0023E3630BE0E6
:104B200013F0800F02D011F0800F06D113F0400F68
:104B300002D011F0400F04D110BD2046FFF7D8FC81
:104B4000FAE72046FFF714FFF6E700BF514B0008D5
:104B500008B5806B0023C385C384FFF764FF08BDDD
:104B6000DFF834D0002103E00C4B5B584350043194
:104B70000B480C4B42189A42F6D30B4A02E0002332
:104B800042F8043B094B9A42F9D3FDF7FBFE00F0D3
:104B900017F8FDF701F87047000002208081000837
:104BA000000000203C0100203C010020F005002016
:104BB000FEE70000014B1868704700BFD8000020D6
:104BC00070B50D4E0D4CA41BA4100025A54209D1B3
:104BD0000B4E0C4C00F040FCA41BA4100025A54279
:104BE00005D170BD56F8253098470135EEE756F8E7
:104BF000253098470135F2E7788100087881000870
:104C0000788100087C81000810B5431E0A44914257
:104C100000D110BD11F8014B03F8014FF7E7024432
:104C20000346934200D1704703F8011BF9E70000E7
:104C30000EB400B59CB01DAB029006906FF0004121
:104C4000094807910491094953F8042B059100681C
:104C5000019302A900F07EF8029B00221A701CB09A
:104C60005DF804EB03B07047D80000200802FFFF96
:104C700010B503461A785C1C3AB9013B11F8012BB8
:104C800003F8012F002AF9D110BD2346F2E70346AD
:104C900011F8012B03F8012B002AF9D170472DE9F7
:104CA000F0478E689E4282460C469046994637D819
:104CB0008A8912F4906F31D0256809696F1A656985
:104CC000022305EB450595FBF3F509F101033B4490
:104CD0009D4238BF1D46530530D5294600F022FBC2
:104CE000064650B90C23CAF80030A38943F04003AC
:104CF000A3814FF0FF30BDE8F0873A462169FFF706
:104D000083FFA38923F4906343F08003A38126618A
:104D100065613E44ED1B2660A5604E464E4500D9B8
:104D20004E4632464146206800F094FAA3689B1B29
:104D3000A36023681E4426600020DCE72A4600F0BA
:104D40004BFB06460028E2D12169504600F09CFA50
:104D5000C8E700002DE9F04F1D468B891F069DB066
:104D600080460C4616460FD50B696BB9402100F002
:104D7000D9FA2060206128B90C23C8F800304FF020
:104D8000FF30C8E0402363610023099320238DF89E
:104D9000293030238DF82A3003954FF0010B374628
:104DA0003D4615F8013B0BB1252B3ED1B7EB060A6A
:104DB0000BD05346324621464046FFF770FF013084
:104DC00000F0A480099B534409933B78002B00F02A
:104DD0009D8000234FF0FF32CDE905230493079314
:104DE0008DF853301A932F46052217F8011B5048AF
:104DF000FBF786FB049BD0B9D90644BF20228DF86F
:104E000053201A0744BF2B228DF853202A782A2AD0
:104E100015D0079A2F4600200A25394611F8013B84
:104E2000303B092B4DD9B8B10FE02F46B8E7404AC7
:104E3000801A0BFA00F0184304903D46D3E7039A1A
:104E4000111D12680391002A01DB079204E052420F
:104E500043F00203079204933B782E2B0CD17B780E
:104E60002A2B33D1039B1A1D1B680392002BB8BF5A
:104E70004FF0FF33023705932E4D39780322284631
:104E8000FBF73EFB38B14023401B03FA00F0049BC4
:104E9000034301370493397827488DF828100622F8
:104EA0007E1CFBF72DFB002838D0244B13BB039B43
:104EB000073323F0070308330393099B4B440993FB
:104EC0006DE705FB023201200F46A6E700230137FC
:104ED000059319460A25384610F8012B303A092A5D
:104EE00003D9002BC8D00591C6E705FB012101239A
:104EF0000746F0E703AB00932246114B04A9404656
:104F0000AFF30080B0F1FF3F8146D6D1A3895B06A5
:104F10003FF535AF09981DB0BDE8F08F03AB0093A6
:104F20002246074B04A9404600F082F8EAE700BF9A
:104F30003C81000842810008468100080000000012
:104F40009F4C00082DE9F04791461F468A680B697F
:104F5000DDF820809342B8BF1346C9F8003091F8BD
:104F6000432006460C4612B10133C9F800302368CD
:104F7000990642BFD9F800300233C9F800302568DD
:104F800015F0060507D104F1190AE368D9F80020E5
:104F90009B1AAB4228DC94F843302268003318BFD8
:104FA000012392062DD404F1430239463046C0470E
:104FB000013020D02368E568D9F8002003F006030B
:104FC000042B08BFAD1AA36822690CBF25EAE5755A
:104FD00000259342C4BF9B1AED184FF000091A3404
:104FE0004D451AD1002008E001235246394630468B
:104FF000C047013003D14FF0FF30BDE8F0870135E5
:10500000C3E7E1185A1C302081F84300224494F889
:10501000451082F843100233C5E701232246394682
:105020003046C0470130E6D009F10109D8E7000059
:105030002DE9F04301F1430C0C46097E85B06E2941
:105040001746064698460C9A00F0B38022D863298A
:1050500036D00AD8002900F0B980582900F08380A2
:1050600004F1420584F8421032E0642901D0692934
:10507000F6D120681368050603F104012AD51B68E0
:105080001160002B03DA2D225B4284F843206F4825
:105090000A2239E0732900F09D8008D86F2920D0BA
:1050A0007029DDD1236843F02003236003E07529D4
:1050B00017D07829D4D1782384F84530644855E056
:1050C0001368191D1B68116004F1420584F8423011
:1050D00001238CE01B68116010F0400F18BF1BB259
:1050E000CFE713682568181D1060280601D51B68D6
:1050F00002E06806FBD51B8854486F2914BF0A22BA
:105100000822002184F843106568A560002DC0F2D4
:105110009580216821F004012160002B3DD1002DF4
:1051200040F08E806546082A0BD12368DB0708D53E
:10513000236962689A42DEBF302305F8013C05F11D
:10514000FF35ACEB05032361CDF800803B4603AA95
:1051500021463046FFF7F6FE01304DD14FF0FF30CB
:1051600005B0BDE8F083394884F84510136821681C
:105170001D1D1B6815600A060BD5CA0744BF41F008
:10518000200121601BB9226822F020022260102237
:10519000B7E74D0648BF9BB2EFE76546B3FBF2F1B8
:1051A00002FB1133C35C05F8013D0B460029F5D124
:1051B000B9E7136825686169181D106028061B6827
:1051C00001D5196002E06A06FBD51980002323612E
:1051D0006546B9E71368191D11601D6862680021F2
:1051E0002846FBF78DF908B1401B606063682361B6
:1051F000002384F84330A7E723692A46394630461E
:10520000C0470130AAD023689B0713D4E068039BF2
:105210009842B8BF1846A3E701234A4639463046AC
:10522000C04701309AD00135E368039A9B1AAB421C
:10523000F2DCEBE7002504F11909F5E7002BACD10E
:10524000037884F8423004F142056CE74D81000890
:105250005E810008884210B501EB020307D8421EA8
:1052600099420AD011F8014B02F8014FF8E7834246
:10527000F5D98118D21AD34200D110BD13F8014DCF
:1052800001F8014DF7E7000038B50546002945D083
:1052900051F8043C0C1F002BB8BFE41800F0D2F802
:1052A0001F4A1368104633B9636014602846BDE88E
:1052B000384000F0C8B8A3420CD921686218934264
:1052C00004BF1A685B68636004BF52182260046000
:1052D000ECE713465A680AB1A242FAD9196858187D
:1052E000A0420BD120680144581882421960DDD1D8
:1052F000106852685A6001441960D7E702D90C233C
:105300002B60D3E7206821188A4204BF11685268D5
:10531000626004BF091821605C60C7E738BD00BF48
:105320006C03002070B5CD1C25F0030508350C2D4D
:1053300038BF0C25002D064601DBA94203D90C23FA
:105340003360002070BD00F07DF8214A14682146CA
:1053500091B9204C23681BB9304600F063F82060F7
:105360002946304600F05EF8431C24D10C233360FC
:10537000304600F068F8E4E70B685B1B18D40B2B91
:105380000FD90B60CD50CC18304600F05CF804F11A
:105390000B00231D20F00700C31AD3D05A42E2505D
:1053A000D0E78C424B6816BF636013600C46EBE796
:1053B0000C464968CCE7C41C24F00304A04205D085
:1053C000211A304600F02EF80130CFD02560DBE7FF
:1053D0006C03002070030020F8B5074614460E4603
:1053E00021B91146BDE8F840FFF79CBF22B9FFF78D
:1053F0004BFF25462846F8BD00F026F8A0420FD204
:1054000021463846FFF78EFF05460028F2D0314688
:105410002246FFF7F9FB31463846FFF735FFE9E74B
:105420003546E7E738B5064C0023054608462360B5
:10543000FDF78AFA431C02D1236803B12B6038BD03
:10544000EC0500207047704751F8043C181F002BF2
:10545000BCBF0B58C0187047F8B500BFF8BC08BCFB
:105460009E467047F8B500BFF8BC08BC9E46704722
:105470000000000100000000000000000001000129
:10548000000000000000000001000100000000001A
:105490000000000100010000000000000000010009
:1054A00001000000000000000100000001000000F9
:1054B00000000001000000010000000000000101E8
:1054C00001010100000000000001000000010000D7
:1054D00000000001000000000001000000000100C9
:1054E00000000000010000000000000000000000BB
:1054F00000000000000000000000000000000000AC
:10550000000000000000000000000C080001010184
:105510000101000000000000010000000001000087
:105520000000000100000000010000000000010078
:105530000000000100000000000100000000010068
:105540000000000001010101010000000000000155
:105550000000000001000000000001000000000148
:105560000000000000010000000001000000000039
:105570000100000000010000000000010101010124
:10558000000000000000000000000000000000001B
:10559000000000000000000000000000000000000B
:1055A0000000000000000C0C0000000101010000E0
:1055B00000000000000100000001000000000001E8
:1055C00000000000000100000000010000000000D9
:1055D00000000000000100000000000000000000CA
:1055E00001000000000000000000000100000000B9
:1055F00000000000000001000000000001000000A9
:105600000001000000000001000000000001000097
:105610000001000000000000000101010000000086
:10562000000000000000000000000000000000007A
:10563000000000000000000000000000000000006A
:1056400000000C0900010101010100000000000040
:105650000100000000010000000000010000000047
:105660000001000000000100000000000100000037
:105670000001000000000001000000000100000027
:105680000000010000000001000000000001000017
:105690000000010000000000010000000001000007
:1056A00000000001000000000100000000010000F7
:1056B00000000001010101010000000000000000E5
:1056C00000000000000000000000000000000000DA
:1056D00000000000000000000000000000000C0AB4
:1056E00000010101010101000000000001000000B3
:1056F00000000000000000010000000000000000A9
:105700000000010000000000000000000001000097
:105710000000000000000000010101010100000084
:105720000000000100000000000000000000010077
:105730000000000000000000000100000000000068
:105740000000000001000000000000000000000157
:105750000101010101000000000000000000000044
:105760000000000000000000000000000000000039
:10577000000000000000000000000C080001010112
:105780000101010000000000010000000000000015
:105790000000000100000000000000000000010007
:1057A00000000000000000000001000000000000F8
:1057B00000000000010101010100000000000001E3
:1057C00000000000000000000000010000000000D8
:1057D00000000000000100000000000000000000C8
:1057E00001000000000000000000000100000000B7
:1057F00000000000000000000000000000000000A9
:105800000000000000000000000000000000000098
:105810000000000000000C0C00000001010101006C
:105820000000000000010000000001000000000175
:105830000000000000000100000001000000000066
:105840000000000000010000000000000000000057
:105850000100000000000000000000010000000145
:105860000101010000000100000000000001000033
:105870000001000000000000010000000001000025
:105880000000000100000000000101010101000012
:105890000000000000000000000000000000000008
:1058A00000000000000000000000000000000000F8
:1058B00000000C0C000100000000000100000000CE
:1058C00001000000000001000000000100000000D5
:1058D00000010000000001000000000001000000C5
:1058E00000010000000000010000000001010101B2
:1058F00001010100000000010000000000010000A3
:105900000000010000000000010000000001000094
:105910000000000100000000010000000000010084
:105920000000000100000000000100000000000075
:105930000000000000000000000000000000000067
:1059400000000000000000000000000000000C0A41
:105950000001000000000000000000000100000045
:105960000000000000000001000000000000000036
:105970000000010000000000000000000001000025
:105980000000000000000000010000000000000016
:105990000000000100000000000000000000010005
:1059A00000000000000000000001000000000000F6
:1059B00000000000010000000000000000000001E5
:1059C00000000000000000000000000000000000D7
:1059D00000000000000000000000000000000000C7
:1059E000000000000000000000000C0C000000009F
:1059F00000010000000000000000000001000000A5
:105A00000000000000000001000000000000000095
:105A10000000010000000000000000000001000084
:105A20000000000000000000010000000000000075
:105A30000000000100000000000000000000010064
:105A40000000000000010000000100000000000054
:105A50000100000001000000000000000101010041
:105A60000000000000000000000000000000000036
:105A70000000000000000000000000000000000026
:105A80000000000000000C090001000000000100FF
:105A90000000000001000000010000000000000103
:105AA00000000100000000000000010000010000F3
:105AB00000000000000100010000000000000000E4
:105AC00001010100000000000000000100000100D1
:105AD00000000000000001000001000000000000C4
